{"abi":[{"inputs":[{"internalType":"address","name":"","type":"address"}],"name":"addressToPublicKey","outputs":[{"internalType":"string","name":"","type":"string"}],"stateMutability":"view","type":"function"},{"inputs":[],"name":"checkPasswordStatus","outputs":[{"internalType":"bool","name":"","type":"bool"}],"stateMutability":"view","type":"function"},{"inputs":[{"internalType":"string","name":"","type":"string"}],"name":"messageHashToEncryptedData","outputs":[{"internalType":"string","name":"encryptedSymmetricKey","type":"string"},{"internalType":"string","name":"encryptedCidOfEncryptedFontFile","type":"string"},{"internalType":"string","name":"encryptedFilenameOfEncryptedFontFile","type":"string"}],"stateMutability":"view","type":"function"},{"inputs":[{"internalType":"string","name":"_messageHash","type":"string"},{"internalType":"string","name":"_encryptedSymmetricKey","type":"string"},{"internalType":"string","name":"_encryptedCidOfEncryptedFontFile","type":"string"},{"internalType":"string","name":"_encryptedFilenameOfEncryptedFontFile","type":"string"}],"name":"storeEncryptedData","outputs":[],"stateMutability":"nonpayable","type":"function"},{"inputs":[{"internalType":"string","name":"_publicKey","type":"string"}],"name":"storePublicKey","outputs":[],"stateMutability":"nonpayable","type":"function"},{"inputs":[{"internalType":"bool","name":"_status","type":"bool"}],"name":"updatePasswordStatus","outputs":[],"stateMutability":"nonpayable","type":"function"}],"devdoc":{"author":"Mahmoud Abou Eleneen","details":"A contract for the Handwritten Fonts project","kind":"dev","methods":{"checkPasswordStatus()":{"details":"Check the password creation status of the sender's account address"},"storeEncryptedData(string,string,string,string)":{"details":"Store the encrypted data needed to display a message in a certain font","params":{"_encryptedCidOfEncryptedFontFile":"the encrypted IPFS CID of the font file this message should be displayed in","_encryptedFilenameOfEncryptedFontFile":"the name of the font file this message should be displayed in","_encryptedSymmetricKey":"the encrypted symmetric key used to encrypt the font file","_messageHash":"the hash of the message"}},"storePublicKey(string)":{"details":"Store the public key of the sender's account address","params":{"_publicKey":"the public key to be stored"}},"updatePasswordStatus(bool)":{"details":"Update the password creation status for an account","params":{"_status":"the new status of the account's password"}}},"title":"HandwrittenFonts","version":1},"evm":{"assembly":"    /* \"HandwrittenFonts.sol\":186:2514  contract HandwrittenFonts {... */\n  mstore(0x40, 0x80)\n  callvalue\n  dup1\n  iszero\n  tag_1\n  jumpi\n  0x00\n  dup1\n  revert\ntag_1:\n  pop\n  dataSize(sub_0)\n  dup1\n  dataOffset(sub_0)\n  0x00\n  codecopy\n  0x00\n  return\nstop\n\nsub_0: assembly {\n        /* \"HandwrittenFonts.sol\":186:2514  contract HandwrittenFonts {... */\n      mstore(0x40, 0x80)\n      callvalue\n      dup1\n      iszero\n      tag_1\n      jumpi\n      0x00\n      dup1\n      revert\n    tag_1:\n      pop\n      jumpi(tag_2, lt(calldatasize, 0x04))\n      shr(0xe0, calldataload(0x00))\n      dup1\n      0x3d976093\n      eq\n      tag_3\n      jumpi\n      dup1\n      0x69f465b6\n      eq\n      tag_4\n      jumpi\n      dup1\n      0x75627289\n      eq\n      tag_5\n      jumpi\n      dup1\n      0x99138ee2\n      eq\n      tag_6\n      jumpi\n      dup1\n      0xb77299a8\n      eq\n      tag_7\n      jumpi\n      dup1\n      0xe7d1b366\n      eq\n      tag_8\n      jumpi\n    tag_2:\n      0x00\n      dup1\n      revert\n        /* \"HandwrittenFonts.sol\":2129:2242  function checkPasswordStatus() external view returns (bool) {... */\n    tag_3:\n      tag_9\n      tag_10\n      jump\t// in\n    tag_9:\n      mload(0x40)\n      tag_11\n      swap2\n      swap1\n      tag_12\n      jump\t// in\n    tag_11:\n      mload(0x40)\n      dup1\n      swap2\n      sub\n      swap1\n      return\n        /* \"HandwrittenFonts.sol\":728:780  mapping(address => string) public addressToPublicKey */\n    tag_4:\n      tag_13\n      0x04\n      dup1\n      calldatasize\n      sub\n      dup2\n      add\n      swap1\n      tag_14\n      swap2\n      swap1\n      tag_15\n      jump\t// in\n    tag_14:\n      tag_16\n      jump\t// in\n    tag_13:\n      mload(0x40)\n      tag_17\n      swap2\n      swap1\n      tag_18\n      jump\t// in\n    tag_17:\n      mload(0x40)\n      dup1\n      swap2\n      sub\n      swap1\n      return\n        /* \"HandwrittenFonts.sol\":1914:2023  function updatePasswordStatus(bool _status) external {... */\n    tag_5:\n      tag_19\n      0x04\n      dup1\n      calldatasize\n      sub\n      dup2\n      add\n      swap1\n      tag_20\n      swap2\n      swap1\n      tag_21\n      jump\t// in\n    tag_20:\n      tag_22\n      jump\t// in\n    tag_19:\n      stop\n        /* \"HandwrittenFonts.sol\":1278:1760  function storeEncryptedData(... */\n    tag_6:\n      tag_23\n      0x04\n      dup1\n      calldatasize\n      sub\n      dup2\n      add\n      swap1\n      tag_24\n      swap2\n      swap1\n      tag_25\n      jump\t// in\n    tag_24:\n      tag_26\n      jump\t// in\n    tag_23:\n      stop\n        /* \"HandwrittenFonts.sol\":479:550  mapping(string => MessageRelatedData) public messageHashToEncryptedData */\n    tag_7:\n      tag_27\n      0x04\n      dup1\n      calldatasize\n      sub\n      dup2\n      add\n      swap1\n      tag_28\n      swap2\n      swap1\n      tag_29\n      jump\t// in\n    tag_28:\n      tag_30\n      jump\t// in\n    tag_27:\n      mload(0x40)\n      tag_31\n      swap4\n      swap3\n      swap2\n      swap1\n      tag_32\n      jump\t// in\n    tag_31:\n      mload(0x40)\n      dup1\n      swap2\n      sub\n      swap1\n      return\n        /* \"HandwrittenFonts.sol\":2388:2511  function storePublicKey(string calldata _publicKey) external {... */\n    tag_8:\n      tag_33\n      0x04\n      dup1\n      calldatasize\n      sub\n      dup2\n      add\n      swap1\n      tag_34\n      swap2\n      swap1\n      tag_35\n      jump\t// in\n    tag_34:\n      tag_36\n      jump\t// in\n    tag_33:\n      stop\n        /* \"HandwrittenFonts.sol\":2129:2242  function checkPasswordStatus() external view returns (bool) {... */\n    tag_10:\n        /* \"HandwrittenFonts.sol\":2183:2187  bool */\n      0x00\n        /* \"HandwrittenFonts.sol\":2207:2222  passwordCreated */\n      0x01\n        /* \"HandwrittenFonts.sol\":2207:2234  passwordCreated[msg.sender] */\n      0x00\n        /* \"HandwrittenFonts.sol\":2223:2233  msg.sender */\n      caller\n        /* \"HandwrittenFonts.sol\":2207:2234  passwordCreated[msg.sender] */\n      0xffffffffffffffffffffffffffffffffffffffff\n      and\n      0xffffffffffffffffffffffffffffffffffffffff\n      and\n      dup2\n      mstore\n      0x20\n      add\n      swap1\n      dup2\n      mstore\n      0x20\n      add\n      0x00\n      keccak256\n      0x00\n      swap1\n      sload\n      swap1\n      0x0100\n      exp\n      swap1\n      div\n      0xff\n      and\n        /* \"HandwrittenFonts.sol\":2200:2234  return passwordCreated[msg.sender] */\n      swap1\n      pop\n        /* \"HandwrittenFonts.sol\":2129:2242  function checkPasswordStatus() external view returns (bool) {... */\n      swap1\n      jump\t// out\n        /* \"HandwrittenFonts.sol\":728:780  mapping(address => string) public addressToPublicKey */\n    tag_16:\n      mstore(0x20, 0x02)\n      dup1\n      0x00\n      mstore\n      keccak256(0x00, 0x40)\n      0x00\n      swap2\n      pop\n      swap1\n      pop\n      dup1\n      sload\n      tag_38\n      swap1\n      tag_39\n      jump\t// in\n    tag_38:\n      dup1\n      0x1f\n      add\n      0x20\n      dup1\n      swap2\n      div\n      mul\n      0x20\n      add\n      mload(0x40)\n      swap1\n      dup2\n      add\n      0x40\n      mstore\n      dup1\n      swap3\n      swap2\n      swap1\n      dup2\n      dup2\n      mstore\n      0x20\n      add\n      dup3\n      dup1\n      sload\n      tag_40\n      swap1\n      tag_39\n      jump\t// in\n    tag_40:\n      dup1\n      iszero\n      tag_41\n      jumpi\n      dup1\n      0x1f\n      lt\n      tag_42\n      jumpi\n      0x0100\n      dup1\n      dup4\n      sload\n      div\n      mul\n      dup4\n      mstore\n      swap2\n      0x20\n      add\n      swap2\n      jump(tag_41)\n    tag_42:\n      dup3\n      add\n      swap2\n      swap1\n      0x00\n      mstore\n      keccak256(0x00, 0x20)\n      swap1\n    tag_43:\n      dup2\n      sload\n      dup2\n      mstore\n      swap1\n      0x01\n      add\n      swap1\n      0x20\n      add\n      dup1\n      dup4\n      gt\n      tag_43\n      jumpi\n      dup3\n      swap1\n      sub\n      0x1f\n      and\n      dup3\n      add\n      swap2\n    tag_41:\n      pop\n      pop\n      pop\n      pop\n      pop\n      dup2\n      jump\t// out\n        /* \"HandwrittenFonts.sol\":1914:2023  function updatePasswordStatus(bool _status) external {... */\n    tag_22:\n        /* \"HandwrittenFonts.sol\":2008:2015  _status */\n      dup1\n        /* \"HandwrittenFonts.sol\":1978:1993  passwordCreated */\n      0x01\n        /* \"HandwrittenFonts.sol\":1978:2005  passwordCreated[msg.sender] */\n      0x00\n        /* \"HandwrittenFonts.sol\":1994:2004  msg.sender */\n      caller\n        /* \"HandwrittenFonts.sol\":1978:2005  passwordCreated[msg.sender] */\n      0xffffffffffffffffffffffffffffffffffffffff\n      and\n      0xffffffffffffffffffffffffffffffffffffffff\n      and\n      dup2\n      mstore\n      0x20\n      add\n      swap1\n      dup2\n      mstore\n      0x20\n      add\n      0x00\n      keccak256\n      0x00\n        /* \"HandwrittenFonts.sol\":1978:2015  passwordCreated[msg.sender] = _status */\n      0x0100\n      exp\n      dup2\n      sload\n      dup2\n      0xff\n      mul\n      not\n      and\n      swap1\n      dup4\n      iszero\n      iszero\n      mul\n      or\n      swap1\n      sstore\n      pop\n        /* \"HandwrittenFonts.sol\":1914:2023  function updatePasswordStatus(bool _status) external {... */\n      pop\n      jump\t// out\n        /* \"HandwrittenFonts.sol\":1278:1760  function storeEncryptedData(... */\n    tag_26:\n        /* \"HandwrittenFonts.sol\":1587:1752  MessageRelatedData(... */\n      mload(0x40)\n      dup1\n      0x60\n      add\n      0x40\n      mstore\n      dup1\n        /* \"HandwrittenFonts.sol\":1620:1642  _encryptedSymmetricKey */\n      dup8\n      dup8\n        /* \"HandwrittenFonts.sol\":1587:1752  MessageRelatedData(... */\n      dup1\n      dup1\n      0x1f\n      add\n      0x20\n      dup1\n      swap2\n      div\n      mul\n      0x20\n      add\n      mload(0x40)\n      swap1\n      dup2\n      add\n      0x40\n      mstore\n      dup1\n      swap4\n      swap3\n      swap2\n      swap1\n      dup2\n      dup2\n      mstore\n      0x20\n      add\n      dup4\n      dup4\n      dup1\n      dup3\n      dup5\n      calldatacopy\n      0x00\n      dup2\n      dup5\n      add\n      mstore\n      not(0x1f)\n      0x1f\n      dup3\n      add\n      and\n      swap1\n      pop\n      dup1\n      dup4\n      add\n      swap3\n      pop\n      pop\n      pop\n      pop\n      pop\n      pop\n      pop\n      dup2\n      mstore\n      0x20\n      add\n        /* \"HandwrittenFonts.sol\":1657:1689  _encryptedCidOfEncryptedFontFile */\n      dup6\n      dup6\n        /* \"HandwrittenFonts.sol\":1587:1752  MessageRelatedData(... */\n      dup1\n      dup1\n      0x1f\n      add\n      0x20\n      dup1\n      swap2\n      div\n      mul\n      0x20\n      add\n      mload(0x40)\n      swap1\n      dup2\n      add\n      0x40\n      mstore\n      dup1\n      swap4\n      swap3\n      swap2\n      swap1\n      dup2\n      dup2\n      mstore\n      0x20\n      add\n      dup4\n      dup4\n      dup1\n      dup3\n      dup5\n      calldatacopy\n      0x00\n      dup2\n      dup5\n      add\n      mstore\n      not(0x1f)\n      0x1f\n      dup3\n      add\n      and\n      swap1\n      pop\n      dup1\n      dup4\n      add\n      swap3\n      pop\n      pop\n      pop\n      pop\n      pop\n      pop\n      pop\n      dup2\n      mstore\n      0x20\n      add\n        /* \"HandwrittenFonts.sol\":1704:1741  _encryptedFilenameOfEncryptedFontFile */\n      dup4\n      dup4\n        /* \"HandwrittenFonts.sol\":1587:1752  MessageRelatedData(... */\n      dup1\n      dup1\n      0x1f\n      add\n      0x20\n      dup1\n      swap2\n      div\n      mul\n      0x20\n      add\n      mload(0x40)\n      swap1\n      dup2\n      add\n      0x40\n      mstore\n      dup1\n      swap4\n      swap3\n      swap2\n      swap1\n      dup2\n      dup2\n      mstore\n      0x20\n      add\n      dup4\n      dup4\n      dup1\n      dup3\n      dup5\n      calldatacopy\n      0x00\n      dup2\n      dup5\n      add\n      mstore\n      not(0x1f)\n      0x1f\n      dup3\n      add\n      and\n      swap1\n      pop\n      dup1\n      dup4\n      add\n      swap3\n      pop\n      pop\n      pop\n      pop\n      pop\n      pop\n      pop\n      dup2\n      mstore\n      pop\n        /* \"HandwrittenFonts.sol\":1544:1570  messageHashToEncryptedData */\n      0x00\n        /* \"HandwrittenFonts.sol\":1571:1583  _messageHash */\n      dup10\n      dup10\n        /* \"HandwrittenFonts.sol\":1544:1584  messageHashToEncryptedData[_messageHash] */\n      mload(0x40)\n      tag_46\n      swap3\n      swap2\n      swap1\n      tag_47\n      jump\t// in\n    tag_46:\n      swap1\n      dup2\n      mstore\n      0x20\n      add\n      mload(0x40)\n      dup1\n      swap2\n      sub\n      swap1\n      keccak256\n        /* \"HandwrittenFonts.sol\":1544:1752  messageHashToEncryptedData[_messageHash] = MessageRelatedData(... */\n      0x00\n      dup3\n      add\n      mload\n      dup2\n      0x00\n      add\n      swap1\n      dup1\n      mload\n      swap1\n      0x20\n      add\n      swap1\n      tag_48\n      swap3\n      swap2\n      swap1\n      tag_49\n      jump\t// in\n    tag_48:\n      pop\n      0x20\n      dup3\n      add\n      mload\n      dup2\n      0x01\n      add\n      swap1\n      dup1\n      mload\n      swap1\n      0x20\n      add\n      swap1\n      tag_50\n      swap3\n      swap2\n      swap1\n      tag_49\n      jump\t// in\n    tag_50:\n      pop\n      0x40\n      dup3\n      add\n      mload\n      dup2\n      0x02\n      add\n      swap1\n      dup1\n      mload\n      swap1\n      0x20\n      add\n      swap1\n      tag_51\n      swap3\n      swap2\n      swap1\n      tag_49\n      jump\t// in\n    tag_51:\n      pop\n      swap1\n      pop\n      pop\n        /* \"HandwrittenFonts.sol\":1278:1760  function storeEncryptedData(... */\n      pop\n      pop\n      pop\n      pop\n      pop\n      pop\n      pop\n      pop\n      jump\t// out\n        /* \"HandwrittenFonts.sol\":479:550  mapping(string => MessageRelatedData) public messageHashToEncryptedData */\n    tag_30:\n      0x00\n      dup2\n      dup1\n      mload\n      0x20\n      dup2\n      add\n      dup3\n      add\n      dup1\n      mload\n      dup5\n      dup3\n      mstore\n      0x20\n      dup4\n      add\n      0x20\n      dup6\n      add\n      keccak256\n      dup2\n      dup4\n      mstore\n      dup1\n      swap6\n      pop\n      pop\n      pop\n      pop\n      pop\n      pop\n      0x00\n      swap2\n      pop\n      swap1\n      pop\n      dup1\n      0x00\n      add\n      dup1\n      sload\n      tag_52\n      swap1\n      tag_39\n      jump\t// in\n    tag_52:\n      dup1\n      0x1f\n      add\n      0x20\n      dup1\n      swap2\n      div\n      mul\n      0x20\n      add\n      mload(0x40)\n      swap1\n      dup2\n      add\n      0x40\n      mstore\n      dup1\n      swap3\n      swap2\n      swap1\n      dup2\n      dup2\n      mstore\n      0x20\n      add\n      dup3\n      dup1\n      sload\n      tag_53\n      swap1\n      tag_39\n      jump\t// in\n    tag_53:\n      dup1\n      iszero\n      tag_54\n      jumpi\n      dup1\n      0x1f\n      lt\n      tag_55\n      jumpi\n      0x0100\n      dup1\n      dup4\n      sload\n      div\n      mul\n      dup4\n      mstore\n      swap2\n      0x20\n      add\n      swap2\n      jump(tag_54)\n    tag_55:\n      dup3\n      add\n      swap2\n      swap1\n      0x00\n      mstore\n      keccak256(0x00, 0x20)\n      swap1\n    tag_56:\n      dup2\n      sload\n      dup2\n      mstore\n      swap1\n      0x01\n      add\n      swap1\n      0x20\n      add\n      dup1\n      dup4\n      gt\n      tag_56\n      jumpi\n      dup3\n      swap1\n      sub\n      0x1f\n      and\n      dup3\n      add\n      swap2\n    tag_54:\n      pop\n      pop\n      pop\n      pop\n      pop\n      swap1\n      dup1\n      0x01\n      add\n      dup1\n      sload\n      tag_57\n      swap1\n      tag_39\n      jump\t// in\n    tag_57:\n      dup1\n      0x1f\n      add\n      0x20\n      dup1\n      swap2\n      div\n      mul\n      0x20\n      add\n      mload(0x40)\n      swap1\n      dup2\n      add\n      0x40\n      mstore\n      dup1\n      swap3\n      swap2\n      swap1\n      dup2\n      dup2\n      mstore\n      0x20\n      add\n      dup3\n      dup1\n      sload\n      tag_58\n      swap1\n      tag_39\n      jump\t// in\n    tag_58:\n      dup1\n      iszero\n      tag_59\n      jumpi\n      dup1\n      0x1f\n      lt\n      tag_60\n      jumpi\n      0x0100\n      dup1\n      dup4\n      sload\n      div\n      mul\n      dup4\n      mstore\n      swap2\n      0x20\n      add\n      swap2\n      jump(tag_59)\n    tag_60:\n      dup3\n      add\n      swap2\n      swap1\n      0x00\n      mstore\n      keccak256(0x00, 0x20)\n      swap1\n    tag_61:\n      dup2\n      sload\n      dup2\n      mstore\n      swap1\n      0x01\n      add\n      swap1\n      0x20\n      add\n      dup1\n      dup4\n      gt\n      tag_61\n      jumpi\n      dup3\n      swap1\n      sub\n      0x1f\n      and\n      dup3\n      add\n      swap2\n    tag_59:\n      pop\n      pop\n      pop\n      pop\n      pop\n      swap1\n      dup1\n      0x02\n      add\n      dup1\n      sload\n      tag_62\n      swap1\n      tag_39\n      jump\t// in\n    tag_62:\n      dup1\n      0x1f\n      add\n      0x20\n      dup1\n      swap2\n      div\n      mul\n      0x20\n      add\n      mload(0x40)\n      swap1\n      dup2\n      add\n      0x40\n      mstore\n      dup1\n      swap3\n      swap2\n      swap1\n      dup2\n      dup2\n      mstore\n      0x20\n      add\n      dup3\n      dup1\n      sload\n      tag_63\n      swap1\n      tag_39\n      jump\t// in\n    tag_63:\n      dup1\n      iszero\n      tag_64\n      jumpi\n      dup1\n      0x1f\n      lt\n      tag_65\n      jumpi\n      0x0100\n      dup1\n      dup4\n      sload\n      div\n      mul\n      dup4\n      mstore\n      swap2\n      0x20\n      add\n      swap2\n      jump(tag_64)\n    tag_65:\n      dup3\n      add\n      swap2\n      swap1\n      0x00\n      mstore\n      keccak256(0x00, 0x20)\n      swap1\n    tag_66:\n      dup2\n      sload\n      dup2\n      mstore\n      swap1\n      0x01\n      add\n      swap1\n      0x20\n      add\n      dup1\n      dup4\n      gt\n      tag_66\n      jumpi\n      dup3\n      swap1\n      sub\n      0x1f\n      and\n      dup3\n      add\n      swap2\n    tag_64:\n      pop\n      pop\n      pop\n      pop\n      pop\n      swap1\n      pop\n      dup4\n      jump\t// out\n        /* \"HandwrittenFonts.sol\":2388:2511  function storePublicKey(string calldata _publicKey) external {... */\n    tag_36:\n        /* \"HandwrittenFonts.sol\":2493:2503  _publicKey */\n      dup2\n      dup2\n        /* \"HandwrittenFonts.sol\":2460:2478  addressToPublicKey */\n      0x02\n        /* \"HandwrittenFonts.sol\":2460:2490  addressToPublicKey[msg.sender] */\n      0x00\n        /* \"HandwrittenFonts.sol\":2479:2489  msg.sender */\n      caller\n        /* \"HandwrittenFonts.sol\":2460:2490  addressToPublicKey[msg.sender] */\n      0xffffffffffffffffffffffffffffffffffffffff\n      and\n      0xffffffffffffffffffffffffffffffffffffffff\n      and\n      dup2\n      mstore\n      0x20\n      add\n      swap1\n      dup2\n      mstore\n      0x20\n      add\n      0x00\n      keccak256\n        /* \"HandwrittenFonts.sol\":2460:2503  addressToPublicKey[msg.sender] = _publicKey */\n      swap2\n      swap1\n      tag_68\n      swap3\n      swap2\n      swap1\n      tag_69\n      jump\t// in\n    tag_68:\n      pop\n        /* \"HandwrittenFonts.sol\":2388:2511  function storePublicKey(string calldata _publicKey) external {... */\n      pop\n      pop\n      jump\t// out\n    tag_49:\n      dup3\n      dup1\n      sload\n      tag_70\n      swap1\n      tag_39\n      jump\t// in\n    tag_70:\n      swap1\n      0x00\n      mstore\n      keccak256(0x00, 0x20)\n      swap1\n      0x1f\n      add\n      0x20\n      swap1\n      div\n      dup2\n      add\n      swap3\n      dup3\n      tag_72\n      jumpi\n      0x00\n      dup6\n      sstore\n      jump(tag_71)\n    tag_72:\n      dup3\n      0x1f\n      lt\n      tag_73\n      jumpi\n      dup1\n      mload\n      not(0xff)\n      and\n      dup4\n      dup1\n      add\n      or\n      dup6\n      sstore\n      jump(tag_71)\n    tag_73:\n      dup3\n      dup1\n      add\n      0x01\n      add\n      dup6\n      sstore\n      dup3\n      iszero\n      tag_71\n      jumpi\n      swap2\n      dup3\n      add\n    tag_74:\n      dup3\n      dup2\n      gt\n      iszero\n      tag_75\n      jumpi\n      dup3\n      mload\n      dup3\n      sstore\n      swap2\n      0x20\n      add\n      swap2\n      swap1\n      0x01\n      add\n      swap1\n      jump(tag_74)\n    tag_75:\n    tag_71:\n      pop\n      swap1\n      pop\n      tag_76\n      swap2\n      swap1\n      tag_77\n      jump\t// in\n    tag_76:\n      pop\n      swap1\n      jump\t// out\n    tag_69:\n      dup3\n      dup1\n      sload\n      tag_78\n      swap1\n      tag_39\n      jump\t// in\n    tag_78:\n      swap1\n      0x00\n      mstore\n      keccak256(0x00, 0x20)\n      swap1\n      0x1f\n      add\n      0x20\n      swap1\n      div\n      dup2\n      add\n      swap3\n      dup3\n      tag_80\n      jumpi\n      0x00\n      dup6\n      sstore\n      jump(tag_79)\n    tag_80:\n      dup3\n      0x1f\n      lt\n      tag_81\n      jumpi\n      dup1\n      calldataload\n      not(0xff)\n      and\n      dup4\n      dup1\n      add\n      or\n      dup6\n      sstore\n      jump(tag_79)\n    tag_81:\n      dup3\n      dup1\n      add\n      0x01\n      add\n      dup6\n      sstore\n      dup3\n      iszero\n      tag_79\n      jumpi\n      swap2\n      dup3\n      add\n    tag_82:\n      dup3\n      dup2\n      gt\n      iszero\n      tag_83\n      jumpi\n      dup3\n      calldataload\n      dup3\n      sstore\n      swap2\n      0x20\n      add\n      swap2\n      swap1\n      0x01\n      add\n      swap1\n      jump(tag_82)\n    tag_83:\n    tag_79:\n      pop\n      swap1\n      pop\n      tag_84\n      swap2\n      swap1\n      tag_77\n      jump\t// in\n    tag_84:\n      pop\n      swap1\n      jump\t// out\n    tag_77:\n    tag_85:\n      dup1\n      dup3\n      gt\n      iszero\n      tag_86\n      jumpi\n      0x00\n      dup2\n      0x00\n      swap1\n      sstore\n      pop\n      0x01\n      add\n      jump(tag_85)\n    tag_86:\n      pop\n      swap1\n      jump\t// out\n        /* \"#utility.yul\":7:97   */\n    tag_87:\n        /* \"#utility.yul\":41:48   */\n      0x00\n        /* \"#utility.yul\":84:89   */\n      dup2\n        /* \"#utility.yul\":77:90   */\n      iszero\n        /* \"#utility.yul\":70:91   */\n      iszero\n        /* \"#utility.yul\":59:91   */\n      swap1\n      pop\n        /* \"#utility.yul\":7:97   */\n      swap2\n      swap1\n      pop\n      jump\t// out\n        /* \"#utility.yul\":103:212   */\n    tag_88:\n        /* \"#utility.yul\":184:205   */\n      tag_121\n        /* \"#utility.yul\":199:204   */\n      dup2\n        /* \"#utility.yul\":184:205   */\n      tag_87\n      jump\t// in\n    tag_121:\n        /* \"#utility.yul\":179:182   */\n      dup3\n        /* \"#utility.yul\":172:206   */\n      mstore\n        /* \"#utility.yul\":103:212   */\n      pop\n      pop\n      jump\t// out\n        /* \"#utility.yul\":218:428   */\n    tag_12:\n        /* \"#utility.yul\":305:309   */\n      0x00\n        /* \"#utility.yul\":343:345   */\n      0x20\n        /* \"#utility.yul\":332:341   */\n      dup3\n        /* \"#utility.yul\":328:346   */\n      add\n        /* \"#utility.yul\":320:346   */\n      swap1\n      pop\n        /* \"#utility.yul\":356:421   */\n      tag_123\n        /* \"#utility.yul\":418:419   */\n      0x00\n        /* \"#utility.yul\":407:416   */\n      dup4\n        /* \"#utility.yul\":403:420   */\n      add\n        /* \"#utility.yul\":394:400   */\n      dup5\n        /* \"#utility.yul\":356:421   */\n      tag_88\n      jump\t// in\n    tag_123:\n        /* \"#utility.yul\":218:428   */\n      swap3\n      swap2\n      pop\n      pop\n      jump\t// out\n        /* \"#utility.yul\":434:509   */\n    tag_89:\n        /* \"#utility.yul\":467:473   */\n      0x00\n        /* \"#utility.yul\":500:502   */\n      0x40\n        /* \"#utility.yul\":494:503   */\n      mload\n        /* \"#utility.yul\":484:503   */\n      swap1\n      pop\n        /* \"#utility.yul\":434:509   */\n      swap1\n      jump\t// out\n        /* \"#utility.yul\":515:632   */\n    tag_90:\n        /* \"#utility.yul\":624:625   */\n      0x00\n        /* \"#utility.yul\":621:622   */\n      dup1\n        /* \"#utility.yul\":614:626   */\n      revert\n        /* \"#utility.yul\":638:755   */\n    tag_91:\n        /* \"#utility.yul\":747:748   */\n      0x00\n        /* \"#utility.yul\":744:745   */\n      dup1\n        /* \"#utility.yul\":737:749   */\n      revert\n        /* \"#utility.yul\":761:887   */\n    tag_92:\n        /* \"#utility.yul\":798:805   */\n      0x00\n        /* \"#utility.yul\":838:880   */\n      0xffffffffffffffffffffffffffffffffffffffff\n        /* \"#utility.yul\":831:836   */\n      dup3\n        /* \"#utility.yul\":827:881   */\n      and\n        /* \"#utility.yul\":816:881   */\n      swap1\n      pop\n        /* \"#utility.yul\":761:887   */\n      swap2\n      swap1\n      pop\n      jump\t// out\n        /* \"#utility.yul\":893:989   */\n    tag_93:\n        /* \"#utility.yul\":930:937   */\n      0x00\n        /* \"#utility.yul\":959:983   */\n      tag_129\n        /* \"#utility.yul\":977:982   */\n      dup3\n        /* \"#utility.yul\":959:983   */\n      tag_92\n      jump\t// in\n    tag_129:\n        /* \"#utility.yul\":948:983   */\n      swap1\n      pop\n        /* \"#utility.yul\":893:989   */\n      swap2\n      swap1\n      pop\n      jump\t// out\n        /* \"#utility.yul\":995:1117   */\n    tag_94:\n        /* \"#utility.yul\":1068:1092   */\n      tag_131\n        /* \"#utility.yul\":1086:1091   */\n      dup2\n        /* \"#utility.yul\":1068:1092   */\n      tag_93\n      jump\t// in\n    tag_131:\n        /* \"#utility.yul\":1061:1066   */\n      dup2\n        /* \"#utility.yul\":1058:1093   */\n      eq\n        /* \"#utility.yul\":1048:1111   */\n      tag_132\n      jumpi\n        /* \"#utility.yul\":1107:1108   */\n      0x00\n        /* \"#utility.yul\":1104:1105   */\n      dup1\n        /* \"#utility.yul\":1097:1109   */\n      revert\n        /* \"#utility.yul\":1048:1111   */\n    tag_132:\n        /* \"#utility.yul\":995:1117   */\n      pop\n      jump\t// out\n        /* \"#utility.yul\":1123:1262   */\n    tag_95:\n        /* \"#utility.yul\":1169:1174   */\n      0x00\n        /* \"#utility.yul\":1207:1213   */\n      dup2\n        /* \"#utility.yul\":1194:1214   */\n      calldataload\n        /* \"#utility.yul\":1185:1214   */\n      swap1\n      pop\n        /* \"#utility.yul\":1223:1256   */\n      tag_134\n        /* \"#utility.yul\":1250:1255   */\n      dup2\n        /* \"#utility.yul\":1223:1256   */\n      tag_94\n      jump\t// in\n    tag_134:\n        /* \"#utility.yul\":1123:1262   */\n      swap3\n      swap2\n      pop\n      pop\n      jump\t// out\n        /* \"#utility.yul\":1268:1597   */\n    tag_15:\n        /* \"#utility.yul\":1327:1333   */\n      0x00\n        /* \"#utility.yul\":1376:1378   */\n      0x20\n        /* \"#utility.yul\":1364:1373   */\n      dup3\n        /* \"#utility.yul\":1355:1362   */\n      dup5\n        /* \"#utility.yul\":1351:1374   */\n      sub\n        /* \"#utility.yul\":1347:1379   */\n      slt\n        /* \"#utility.yul\":1344:1463   */\n      iszero\n      tag_136\n      jumpi\n        /* \"#utility.yul\":1382:1461   */\n      tag_137\n      tag_90\n      jump\t// in\n    tag_137:\n        /* \"#utility.yul\":1344:1463   */\n    tag_136:\n        /* \"#utility.yul\":1502:1503   */\n      0x00\n        /* \"#utility.yul\":1527:1580   */\n      tag_138\n        /* \"#utility.yul\":1572:1579   */\n      dup5\n        /* \"#utility.yul\":1563:1569   */\n      dup3\n        /* \"#utility.yul\":1552:1561   */\n      dup6\n        /* \"#utility.yul\":1548:1570   */\n      add\n        /* \"#utility.yul\":1527:1580   */\n      tag_95\n      jump\t// in\n    tag_138:\n        /* \"#utility.yul\":1517:1580   */\n      swap2\n      pop\n        /* \"#utility.yul\":1473:1590   */\n      pop\n        /* \"#utility.yul\":1268:1597   */\n      swap3\n      swap2\n      pop\n      pop\n      jump\t// out\n        /* \"#utility.yul\":1603:1702   */\n    tag_96:\n        /* \"#utility.yul\":1655:1661   */\n      0x00\n        /* \"#utility.yul\":1689:1694   */\n      dup2\n        /* \"#utility.yul\":1683:1695   */\n      mload\n        /* \"#utility.yul\":1673:1695   */\n      swap1\n      pop\n        /* \"#utility.yul\":1603:1702   */\n      swap2\n      swap1\n      pop\n      jump\t// out\n        /* \"#utility.yul\":1708:1877   */\n    tag_97:\n        /* \"#utility.yul\":1792:1803   */\n      0x00\n        /* \"#utility.yul\":1826:1832   */\n      dup3\n        /* \"#utility.yul\":1821:1824   */\n      dup3\n        /* \"#utility.yul\":1814:1833   */\n      mstore\n        /* \"#utility.yul\":1866:1870   */\n      0x20\n        /* \"#utility.yul\":1861:1864   */\n      dup3\n        /* \"#utility.yul\":1857:1871   */\n      add\n        /* \"#utility.yul\":1842:1871   */\n      swap1\n      pop\n        /* \"#utility.yul\":1708:1877   */\n      swap3\n      swap2\n      pop\n      pop\n      jump\t// out\n        /* \"#utility.yul\":1883:2190   */\n    tag_98:\n        /* \"#utility.yul\":1951:1952   */\n      0x00\n        /* \"#utility.yul\":1961:2074   */\n    tag_142:\n        /* \"#utility.yul\":1975:1981   */\n      dup4\n        /* \"#utility.yul\":1972:1973   */\n      dup2\n        /* \"#utility.yul\":1969:1982   */\n      lt\n        /* \"#utility.yul\":1961:2074   */\n      iszero\n      tag_144\n      jumpi\n        /* \"#utility.yul\":2060:2061   */\n      dup1\n        /* \"#utility.yul\":2055:2058   */\n      dup3\n        /* \"#utility.yul\":2051:2062   */\n      add\n        /* \"#utility.yul\":2045:2063   */\n      mload\n        /* \"#utility.yul\":2041:2042   */\n      dup2\n        /* \"#utility.yul\":2036:2039   */\n      dup5\n        /* \"#utility.yul\":2032:2043   */\n      add\n        /* \"#utility.yul\":2025:2064   */\n      mstore\n        /* \"#utility.yul\":1997:1999   */\n      0x20\n        /* \"#utility.yul\":1994:1995   */\n      dup2\n        /* \"#utility.yul\":1990:2000   */\n      add\n        /* \"#utility.yul\":1985:2000   */\n      swap1\n      pop\n        /* \"#utility.yul\":1961:2074   */\n      jump(tag_142)\n    tag_144:\n        /* \"#utility.yul\":2092:2098   */\n      dup4\n        /* \"#utility.yul\":2089:2090   */\n      dup2\n        /* \"#utility.yul\":2086:2099   */\n      gt\n        /* \"#utility.yul\":2083:2184   */\n      iszero\n      tag_145\n      jumpi\n        /* \"#utility.yul\":2172:2173   */\n      0x00\n        /* \"#utility.yul\":2163:2169   */\n      dup5\n        /* \"#utility.yul\":2158:2161   */\n      dup5\n        /* \"#utility.yul\":2154:2170   */\n      add\n        /* \"#utility.yul\":2147:2174   */\n      mstore\n        /* \"#utility.yul\":2083:2184   */\n    tag_145:\n        /* \"#utility.yul\":1932:2190   */\n      pop\n        /* \"#utility.yul\":1883:2190   */\n      pop\n      pop\n      pop\n      jump\t// out\n        /* \"#utility.yul\":2196:2298   */\n    tag_99:\n        /* \"#utility.yul\":2237:2243   */\n      0x00\n        /* \"#utility.yul\":2288:2290   */\n      0x1f\n        /* \"#utility.yul\":2284:2291   */\n      not\n        /* \"#utility.yul\":2279:2281   */\n      0x1f\n        /* \"#utility.yul\":2272:2277   */\n      dup4\n        /* \"#utility.yul\":2268:2282   */\n      add\n        /* \"#utility.yul\":2264:2292   */\n      and\n        /* \"#utility.yul\":2254:2292   */\n      swap1\n      pop\n        /* \"#utility.yul\":2196:2298   */\n      swap2\n      swap1\n      pop\n      jump\t// out\n        /* \"#utility.yul\":2304:2668   */\n    tag_100:\n        /* \"#utility.yul\":2392:2395   */\n      0x00\n        /* \"#utility.yul\":2420:2459   */\n      tag_148\n        /* \"#utility.yul\":2453:2458   */\n      dup3\n        /* \"#utility.yul\":2420:2459   */\n      tag_96\n      jump\t// in\n    tag_148:\n        /* \"#utility.yul\":2475:2546   */\n      tag_149\n        /* \"#utility.yul\":2539:2545   */\n      dup2\n        /* \"#utility.yul\":2534:2537   */\n      dup6\n        /* \"#utility.yul\":2475:2546   */\n      tag_97\n      jump\t// in\n    tag_149:\n        /* \"#utility.yul\":2468:2546   */\n      swap4\n      pop\n        /* \"#utility.yul\":2555:2607   */\n      tag_150\n        /* \"#utility.yul\":2600:2606   */\n      dup2\n        /* \"#utility.yul\":2595:2598   */\n      dup6\n        /* \"#utility.yul\":2588:2592   */\n      0x20\n        /* \"#utility.yul\":2581:2586   */\n      dup7\n        /* \"#utility.yul\":2577:2593   */\n      add\n        /* \"#utility.yul\":2555:2607   */\n      tag_98\n      jump\t// in\n    tag_150:\n        /* \"#utility.yul\":2632:2661   */\n      tag_151\n        /* \"#utility.yul\":2654:2660   */\n      dup2\n        /* \"#utility.yul\":2632:2661   */\n      tag_99\n      jump\t// in\n    tag_151:\n        /* \"#utility.yul\":2627:2630   */\n      dup5\n        /* \"#utility.yul\":2623:2662   */\n      add\n        /* \"#utility.yul\":2616:2662   */\n      swap2\n      pop\n        /* \"#utility.yul\":2396:2668   */\n      pop\n        /* \"#utility.yul\":2304:2668   */\n      swap3\n      swap2\n      pop\n      pop\n      jump\t// out\n        /* \"#utility.yul\":2674:2987   */\n    tag_18:\n        /* \"#utility.yul\":2787:2791   */\n      0x00\n        /* \"#utility.yul\":2825:2827   */\n      0x20\n        /* \"#utility.yul\":2814:2823   */\n      dup3\n        /* \"#utility.yul\":2810:2828   */\n      add\n        /* \"#utility.yul\":2802:2828   */\n      swap1\n      pop\n        /* \"#utility.yul\":2874:2883   */\n      dup2\n        /* \"#utility.yul\":2868:2872   */\n      dup2\n        /* \"#utility.yul\":2864:2884   */\n      sub\n        /* \"#utility.yul\":2860:2861   */\n      0x00\n        /* \"#utility.yul\":2849:2858   */\n      dup4\n        /* \"#utility.yul\":2845:2862   */\n      add\n        /* \"#utility.yul\":2838:2885   */\n      mstore\n        /* \"#utility.yul\":2902:2980   */\n      tag_153\n        /* \"#utility.yul\":2975:2979   */\n      dup2\n        /* \"#utility.yul\":2966:2972   */\n      dup5\n        /* \"#utility.yul\":2902:2980   */\n      tag_100\n      jump\t// in\n    tag_153:\n        /* \"#utility.yul\":2894:2980   */\n      swap1\n      pop\n        /* \"#utility.yul\":2674:2987   */\n      swap3\n      swap2\n      pop\n      pop\n      jump\t// out\n        /* \"#utility.yul\":2993:3109   */\n    tag_101:\n        /* \"#utility.yul\":3063:3084   */\n      tag_155\n        /* \"#utility.yul\":3078:3083   */\n      dup2\n        /* \"#utility.yul\":3063:3084   */\n      tag_87\n      jump\t// in\n    tag_155:\n        /* \"#utility.yul\":3056:3061   */\n      dup2\n        /* \"#utility.yul\":3053:3085   */\n      eq\n        /* \"#utility.yul\":3043:3103   */\n      tag_156\n      jumpi\n        /* \"#utility.yul\":3099:3100   */\n      0x00\n        /* \"#utility.yul\":3096:3097   */\n      dup1\n        /* \"#utility.yul\":3089:3101   */\n      revert\n        /* \"#utility.yul\":3043:3103   */\n    tag_156:\n        /* \"#utility.yul\":2993:3109   */\n      pop\n      jump\t// out\n        /* \"#utility.yul\":3115:3248   */\n    tag_102:\n        /* \"#utility.yul\":3158:3163   */\n      0x00\n        /* \"#utility.yul\":3196:3202   */\n      dup2\n        /* \"#utility.yul\":3183:3203   */\n      calldataload\n        /* \"#utility.yul\":3174:3203   */\n      swap1\n      pop\n        /* \"#utility.yul\":3212:3242   */\n      tag_158\n        /* \"#utility.yul\":3236:3241   */\n      dup2\n        /* \"#utility.yul\":3212:3242   */\n      tag_101\n      jump\t// in\n    tag_158:\n        /* \"#utility.yul\":3115:3248   */\n      swap3\n      swap2\n      pop\n      pop\n      jump\t// out\n        /* \"#utility.yul\":3254:3577   */\n    tag_21:\n        /* \"#utility.yul\":3310:3316   */\n      0x00\n        /* \"#utility.yul\":3359:3361   */\n      0x20\n        /* \"#utility.yul\":3347:3356   */\n      dup3\n        /* \"#utility.yul\":3338:3345   */\n      dup5\n        /* \"#utility.yul\":3334:3357   */\n      sub\n        /* \"#utility.yul\":3330:3362   */\n      slt\n        /* \"#utility.yul\":3327:3446   */\n      iszero\n      tag_160\n      jumpi\n        /* \"#utility.yul\":3365:3444   */\n      tag_161\n      tag_90\n      jump\t// in\n    tag_161:\n        /* \"#utility.yul\":3327:3446   */\n    tag_160:\n        /* \"#utility.yul\":3485:3486   */\n      0x00\n        /* \"#utility.yul\":3510:3560   */\n      tag_162\n        /* \"#utility.yul\":3552:3559   */\n      dup5\n        /* \"#utility.yul\":3543:3549   */\n      dup3\n        /* \"#utility.yul\":3532:3541   */\n      dup6\n        /* \"#utility.yul\":3528:3550   */\n      add\n        /* \"#utility.yul\":3510:3560   */\n      tag_102\n      jump\t// in\n    tag_162:\n        /* \"#utility.yul\":3500:3560   */\n      swap2\n      pop\n        /* \"#utility.yul\":3456:3570   */\n      pop\n        /* \"#utility.yul\":3254:3577   */\n      swap3\n      swap2\n      pop\n      pop\n      jump\t// out\n        /* \"#utility.yul\":3583:3700   */\n    tag_103:\n        /* \"#utility.yul\":3692:3693   */\n      0x00\n        /* \"#utility.yul\":3689:3690   */\n      dup1\n        /* \"#utility.yul\":3682:3694   */\n      revert\n        /* \"#utility.yul\":3706:3823   */\n    tag_104:\n        /* \"#utility.yul\":3815:3816   */\n      0x00\n        /* \"#utility.yul\":3812:3813   */\n      dup1\n        /* \"#utility.yul\":3805:3817   */\n      revert\n        /* \"#utility.yul\":3829:3946   */\n    tag_105:\n        /* \"#utility.yul\":3938:3939   */\n      0x00\n        /* \"#utility.yul\":3935:3936   */\n      dup1\n        /* \"#utility.yul\":3928:3940   */\n      revert\n        /* \"#utility.yul\":3966:4519   */\n    tag_106:\n        /* \"#utility.yul\":4024:4032   */\n      0x00\n        /* \"#utility.yul\":4034:4040   */\n      dup1\n        /* \"#utility.yul\":4084:4087   */\n      dup4\n        /* \"#utility.yul\":4077:4081   */\n      0x1f\n        /* \"#utility.yul\":4069:4075   */\n      dup5\n        /* \"#utility.yul\":4065:4082   */\n      add\n        /* \"#utility.yul\":4061:4088   */\n      slt\n        /* \"#utility.yul\":4051:4173   */\n      tag_167\n      jumpi\n        /* \"#utility.yul\":4092:4171   */\n      tag_168\n      tag_103\n      jump\t// in\n    tag_168:\n        /* \"#utility.yul\":4051:4173   */\n    tag_167:\n        /* \"#utility.yul\":4205:4211   */\n      dup3\n        /* \"#utility.yul\":4192:4212   */\n      calldataload\n        /* \"#utility.yul\":4182:4212   */\n      swap1\n      pop\n        /* \"#utility.yul\":4235:4253   */\n      0xffffffffffffffff\n        /* \"#utility.yul\":4227:4233   */\n      dup2\n        /* \"#utility.yul\":4224:4254   */\n      gt\n        /* \"#utility.yul\":4221:4338   */\n      iszero\n      tag_169\n      jumpi\n        /* \"#utility.yul\":4257:4336   */\n      tag_170\n      tag_104\n      jump\t// in\n    tag_170:\n        /* \"#utility.yul\":4221:4338   */\n    tag_169:\n        /* \"#utility.yul\":4371:4375   */\n      0x20\n        /* \"#utility.yul\":4363:4369   */\n      dup4\n        /* \"#utility.yul\":4359:4376   */\n      add\n        /* \"#utility.yul\":4347:4376   */\n      swap2\n      pop\n        /* \"#utility.yul\":4425:4428   */\n      dup4\n        /* \"#utility.yul\":4417:4421   */\n      0x01\n        /* \"#utility.yul\":4409:4415   */\n      dup3\n        /* \"#utility.yul\":4405:4422   */\n      mul\n        /* \"#utility.yul\":4395:4403   */\n      dup4\n        /* \"#utility.yul\":4391:4423   */\n      add\n        /* \"#utility.yul\":4388:4429   */\n      gt\n        /* \"#utility.yul\":4385:4513   */\n      iszero\n      tag_171\n      jumpi\n        /* \"#utility.yul\":4432:4511   */\n      tag_172\n      tag_105\n      jump\t// in\n    tag_172:\n        /* \"#utility.yul\":4385:4513   */\n    tag_171:\n        /* \"#utility.yul\":3966:4519   */\n      swap3\n      pop\n      swap3\n      swap1\n      pop\n      jump\t// out\n        /* \"#utility.yul\":4525:6090   */\n    tag_25:\n        /* \"#utility.yul\":4659:4665   */\n      0x00\n        /* \"#utility.yul\":4667:4673   */\n      dup1\n        /* \"#utility.yul\":4675:4681   */\n      0x00\n        /* \"#utility.yul\":4683:4689   */\n      dup1\n        /* \"#utility.yul\":4691:4697   */\n      0x00\n        /* \"#utility.yul\":4699:4705   */\n      dup1\n        /* \"#utility.yul\":4707:4713   */\n      0x00\n        /* \"#utility.yul\":4715:4721   */\n      dup1\n        /* \"#utility.yul\":4764:4767   */\n      0x80\n        /* \"#utility.yul\":4752:4761   */\n      dup10\n        /* \"#utility.yul\":4743:4750   */\n      dup12\n        /* \"#utility.yul\":4739:4762   */\n      sub\n        /* \"#utility.yul\":4735:4768   */\n      slt\n        /* \"#utility.yul\":4732:4852   */\n      iszero\n      tag_174\n      jumpi\n        /* \"#utility.yul\":4771:4850   */\n      tag_175\n      tag_90\n      jump\t// in\n    tag_175:\n        /* \"#utility.yul\":4732:4852   */\n    tag_174:\n        /* \"#utility.yul\":4919:4920   */\n      0x00\n        /* \"#utility.yul\":4908:4917   */\n      dup10\n        /* \"#utility.yul\":4904:4921   */\n      add\n        /* \"#utility.yul\":4891:4922   */\n      calldataload\n        /* \"#utility.yul\":4949:4967   */\n      0xffffffffffffffff\n        /* \"#utility.yul\":4941:4947   */\n      dup2\n        /* \"#utility.yul\":4938:4968   */\n      gt\n        /* \"#utility.yul\":4935:5052   */\n      iszero\n      tag_176\n      jumpi\n        /* \"#utility.yul\":4971:5050   */\n      tag_177\n      tag_91\n      jump\t// in\n    tag_177:\n        /* \"#utility.yul\":4935:5052   */\n    tag_176:\n        /* \"#utility.yul\":5084:5149   */\n      tag_178\n        /* \"#utility.yul\":5141:5148   */\n      dup12\n        /* \"#utility.yul\":5132:5138   */\n      dup3\n        /* \"#utility.yul\":5121:5130   */\n      dup13\n        /* \"#utility.yul\":5117:5139   */\n      add\n        /* \"#utility.yul\":5084:5149   */\n      tag_106\n      jump\t// in\n    tag_178:\n        /* \"#utility.yul\":5066:5149   */\n      swap9\n      pop\n      swap9\n      pop\n        /* \"#utility.yul\":4862:5159   */\n      pop\n        /* \"#utility.yul\":5226:5228   */\n      0x20\n        /* \"#utility.yul\":5215:5224   */\n      dup10\n        /* \"#utility.yul\":5211:5229   */\n      add\n        /* \"#utility.yul\":5198:5230   */\n      calldataload\n        /* \"#utility.yul\":5257:5275   */\n      0xffffffffffffffff\n        /* \"#utility.yul\":5249:5255   */\n      dup2\n        /* \"#utility.yul\":5246:5276   */\n      gt\n        /* \"#utility.yul\":5243:5360   */\n      iszero\n      tag_179\n      jumpi\n        /* \"#utility.yul\":5279:5358   */\n      tag_180\n      tag_91\n      jump\t// in\n    tag_180:\n        /* \"#utility.yul\":5243:5360   */\n    tag_179:\n        /* \"#utility.yul\":5392:5457   */\n      tag_181\n        /* \"#utility.yul\":5449:5456   */\n      dup12\n        /* \"#utility.yul\":5440:5446   */\n      dup3\n        /* \"#utility.yul\":5429:5438   */\n      dup13\n        /* \"#utility.yul\":5425:5447   */\n      add\n        /* \"#utility.yul\":5392:5457   */\n      tag_106\n      jump\t// in\n    tag_181:\n        /* \"#utility.yul\":5374:5457   */\n      swap7\n      pop\n      swap7\n      pop\n        /* \"#utility.yul\":5169:5467   */\n      pop\n        /* \"#utility.yul\":5534:5536   */\n      0x40\n        /* \"#utility.yul\":5523:5532   */\n      dup10\n        /* \"#utility.yul\":5519:5537   */\n      add\n        /* \"#utility.yul\":5506:5538   */\n      calldataload\n        /* \"#utility.yul\":5565:5583   */\n      0xffffffffffffffff\n        /* \"#utility.yul\":5557:5563   */\n      dup2\n        /* \"#utility.yul\":5554:5584   */\n      gt\n        /* \"#utility.yul\":5551:5668   */\n      iszero\n      tag_182\n      jumpi\n        /* \"#utility.yul\":5587:5666   */\n      tag_183\n      tag_91\n      jump\t// in\n    tag_183:\n        /* \"#utility.yul\":5551:5668   */\n    tag_182:\n        /* \"#utility.yul\":5700:5765   */\n      tag_184\n        /* \"#utility.yul\":5757:5764   */\n      dup12\n        /* \"#utility.yul\":5748:5754   */\n      dup3\n        /* \"#utility.yul\":5737:5746   */\n      dup13\n        /* \"#utility.yul\":5733:5755   */\n      add\n        /* \"#utility.yul\":5700:5765   */\n      tag_106\n      jump\t// in\n    tag_184:\n        /* \"#utility.yul\":5682:5765   */\n      swap5\n      pop\n      swap5\n      pop\n        /* \"#utility.yul\":5477:5775   */\n      pop\n        /* \"#utility.yul\":5842:5844   */\n      0x60\n        /* \"#utility.yul\":5831:5840   */\n      dup10\n        /* \"#utility.yul\":5827:5845   */\n      add\n        /* \"#utility.yul\":5814:5846   */\n      calldataload\n        /* \"#utility.yul\":5873:5891   */\n      0xffffffffffffffff\n        /* \"#utility.yul\":5865:5871   */\n      dup2\n        /* \"#utility.yul\":5862:5892   */\n      gt\n        /* \"#utility.yul\":5859:5976   */\n      iszero\n      tag_185\n      jumpi\n        /* \"#utility.yul\":5895:5974   */\n      tag_186\n      tag_91\n      jump\t// in\n    tag_186:\n        /* \"#utility.yul\":5859:5976   */\n    tag_185:\n        /* \"#utility.yul\":6008:6073   */\n      tag_187\n        /* \"#utility.yul\":6065:6072   */\n      dup12\n        /* \"#utility.yul\":6056:6062   */\n      dup3\n        /* \"#utility.yul\":6045:6054   */\n      dup13\n        /* \"#utility.yul\":6041:6063   */\n      add\n        /* \"#utility.yul\":6008:6073   */\n      tag_106\n      jump\t// in\n    tag_187:\n        /* \"#utility.yul\":5990:6073   */\n      swap3\n      pop\n      swap3\n      pop\n        /* \"#utility.yul\":5785:6083   */\n      pop\n        /* \"#utility.yul\":4525:6090   */\n      swap3\n      swap6\n      swap9\n      pop\n      swap3\n      swap6\n      swap9\n      swap1\n      swap4\n      swap7\n      pop\n      jump\t// out\n        /* \"#utility.yul\":6096:6213   */\n    tag_107:\n        /* \"#utility.yul\":6205:6206   */\n      0x00\n        /* \"#utility.yul\":6202:6203   */\n      dup1\n        /* \"#utility.yul\":6195:6207   */\n      revert\n        /* \"#utility.yul\":6219:6399   */\n    tag_108:\n        /* \"#utility.yul\":6267:6344   */\n      0x4e487b7100000000000000000000000000000000000000000000000000000000\n        /* \"#utility.yul\":6264:6265   */\n      0x00\n        /* \"#utility.yul\":6257:6345   */\n      mstore\n        /* \"#utility.yul\":6364:6368   */\n      0x41\n        /* \"#utility.yul\":6361:6362   */\n      0x04\n        /* \"#utility.yul\":6354:6369   */\n      mstore\n        /* \"#utility.yul\":6388:6392   */\n      0x24\n        /* \"#utility.yul\":6385:6386   */\n      0x00\n        /* \"#utility.yul\":6378:6393   */\n      revert\n        /* \"#utility.yul\":6405:6686   */\n    tag_109:\n        /* \"#utility.yul\":6488:6515   */\n      tag_191\n        /* \"#utility.yul\":6510:6514   */\n      dup3\n        /* \"#utility.yul\":6488:6515   */\n      tag_99\n      jump\t// in\n    tag_191:\n        /* \"#utility.yul\":6480:6486   */\n      dup2\n        /* \"#utility.yul\":6476:6516   */\n      add\n        /* \"#utility.yul\":6618:6624   */\n      dup2\n        /* \"#utility.yul\":6606:6616   */\n      dup2\n        /* \"#utility.yul\":6603:6625   */\n      lt\n        /* \"#utility.yul\":6582:6600   */\n      0xffffffffffffffff\n        /* \"#utility.yul\":6570:6580   */\n      dup3\n        /* \"#utility.yul\":6567:6601   */\n      gt\n        /* \"#utility.yul\":6564:6626   */\n      or\n        /* \"#utility.yul\":6561:6649   */\n      iszero\n      tag_192\n      jumpi\n        /* \"#utility.yul\":6629:6647   */\n      tag_193\n      tag_108\n      jump\t// in\n    tag_193:\n        /* \"#utility.yul\":6561:6649   */\n    tag_192:\n        /* \"#utility.yul\":6669:6679   */\n      dup1\n        /* \"#utility.yul\":6665:6667   */\n      0x40\n        /* \"#utility.yul\":6658:6680   */\n      mstore\n        /* \"#utility.yul\":6448:6686   */\n      pop\n        /* \"#utility.yul\":6405:6686   */\n      pop\n      pop\n      jump\t// out\n        /* \"#utility.yul\":6692:6821   */\n    tag_110:\n        /* \"#utility.yul\":6726:6732   */\n      0x00\n        /* \"#utility.yul\":6753:6773   */\n      tag_195\n      tag_89\n      jump\t// in\n    tag_195:\n        /* \"#utility.yul\":6743:6773   */\n      swap1\n      pop\n        /* \"#utility.yul\":6782:6815   */\n      tag_196\n        /* \"#utility.yul\":6810:6814   */\n      dup3\n        /* \"#utility.yul\":6802:6808   */\n      dup3\n        /* \"#utility.yul\":6782:6815   */\n      tag_109\n      jump\t// in\n    tag_196:\n        /* \"#utility.yul\":6692:6821   */\n      swap2\n      swap1\n      pop\n      jump\t// out\n        /* \"#utility.yul\":6827:7135   */\n    tag_111:\n        /* \"#utility.yul\":6889:6893   */\n      0x00\n        /* \"#utility.yul\":6979:6997   */\n      0xffffffffffffffff\n        /* \"#utility.yul\":6971:6977   */\n      dup3\n        /* \"#utility.yul\":6968:6998   */\n      gt\n        /* \"#utility.yul\":6965:7021   */\n      iszero\n      tag_198\n      jumpi\n        /* \"#utility.yul\":7001:7019   */\n      tag_199\n      tag_108\n      jump\t// in\n    tag_199:\n        /* \"#utility.yul\":6965:7021   */\n    tag_198:\n        /* \"#utility.yul\":7039:7068   */\n      tag_200\n        /* \"#utility.yul\":7061:7067   */\n      dup3\n        /* \"#utility.yul\":7039:7068   */\n      tag_99\n      jump\t// in\n    tag_200:\n        /* \"#utility.yul\":7031:7068   */\n      swap1\n      pop\n        /* \"#utility.yul\":7123:7127   */\n      0x20\n        /* \"#utility.yul\":7117:7121   */\n      dup2\n        /* \"#utility.yul\":7113:7128   */\n      add\n        /* \"#utility.yul\":7105:7128   */\n      swap1\n      pop\n        /* \"#utility.yul\":6827:7135   */\n      swap2\n      swap1\n      pop\n      jump\t// out\n        /* \"#utility.yul\":7141:7295   */\n    tag_112:\n        /* \"#utility.yul\":7225:7231   */\n      dup3\n        /* \"#utility.yul\":7220:7223   */\n      dup2\n        /* \"#utility.yul\":7215:7218   */\n      dup4\n        /* \"#utility.yul\":7202:7232   */\n      calldatacopy\n        /* \"#utility.yul\":7287:7288   */\n      0x00\n        /* \"#utility.yul\":7278:7284   */\n      dup4\n        /* \"#utility.yul\":7273:7276   */\n      dup4\n        /* \"#utility.yul\":7269:7285   */\n      add\n        /* \"#utility.yul\":7262:7289   */\n      mstore\n        /* \"#utility.yul\":7141:7295   */\n      pop\n      pop\n      pop\n      jump\t// out\n        /* \"#utility.yul\":7301:7713   */\n    tag_113:\n        /* \"#utility.yul\":7379:7384   */\n      0x00\n        /* \"#utility.yul\":7404:7470   */\n      tag_203\n        /* \"#utility.yul\":7420:7469   */\n      tag_204\n        /* \"#utility.yul\":7462:7468   */\n      dup5\n        /* \"#utility.yul\":7420:7469   */\n      tag_111\n      jump\t// in\n    tag_204:\n        /* \"#utility.yul\":7404:7470   */\n      tag_110\n      jump\t// in\n    tag_203:\n        /* \"#utility.yul\":7395:7470   */\n      swap1\n      pop\n        /* \"#utility.yul\":7493:7499   */\n      dup3\n        /* \"#utility.yul\":7486:7491   */\n      dup2\n        /* \"#utility.yul\":7479:7500   */\n      mstore\n        /* \"#utility.yul\":7531:7535   */\n      0x20\n        /* \"#utility.yul\":7524:7529   */\n      dup2\n        /* \"#utility.yul\":7520:7536   */\n      add\n        /* \"#utility.yul\":7569:7572   */\n      dup5\n        /* \"#utility.yul\":7560:7566   */\n      dup5\n        /* \"#utility.yul\":7555:7558   */\n      dup5\n        /* \"#utility.yul\":7551:7567   */\n      add\n        /* \"#utility.yul\":7548:7573   */\n      gt\n        /* \"#utility.yul\":7545:7657   */\n      iszero\n      tag_205\n      jumpi\n        /* \"#utility.yul\":7576:7655   */\n      tag_206\n      tag_107\n      jump\t// in\n    tag_206:\n        /* \"#utility.yul\":7545:7657   */\n    tag_205:\n        /* \"#utility.yul\":7666:7707   */\n      tag_207\n        /* \"#utility.yul\":7700:7706   */\n      dup5\n        /* \"#utility.yul\":7695:7698   */\n      dup3\n        /* \"#utility.yul\":7690:7693   */\n      dup6\n        /* \"#utility.yul\":7666:7707   */\n      tag_112\n      jump\t// in\n    tag_207:\n        /* \"#utility.yul\":7385:7713   */\n      pop\n        /* \"#utility.yul\":7301:7713   */\n      swap4\n      swap3\n      pop\n      pop\n      pop\n      jump\t// out\n        /* \"#utility.yul\":7733:8073   */\n    tag_114:\n        /* \"#utility.yul\":7789:7794   */\n      0x00\n        /* \"#utility.yul\":7838:7841   */\n      dup3\n        /* \"#utility.yul\":7831:7835   */\n      0x1f\n        /* \"#utility.yul\":7823:7829   */\n      dup4\n        /* \"#utility.yul\":7819:7836   */\n      add\n        /* \"#utility.yul\":7815:7842   */\n      slt\n        /* \"#utility.yul\":7805:7927   */\n      tag_209\n      jumpi\n        /* \"#utility.yul\":7846:7925   */\n      tag_210\n      tag_103\n      jump\t// in\n    tag_210:\n        /* \"#utility.yul\":7805:7927   */\n    tag_209:\n        /* \"#utility.yul\":7963:7969   */\n      dup2\n        /* \"#utility.yul\":7950:7970   */\n      calldataload\n        /* \"#utility.yul\":7988:8067   */\n      tag_211\n        /* \"#utility.yul\":8063:8066   */\n      dup5\n        /* \"#utility.yul\":8055:8061   */\n      dup3\n        /* \"#utility.yul\":8048:8052   */\n      0x20\n        /* \"#utility.yul\":8040:8046   */\n      dup7\n        /* \"#utility.yul\":8036:8053   */\n      add\n        /* \"#utility.yul\":7988:8067   */\n      tag_113\n      jump\t// in\n    tag_211:\n        /* \"#utility.yul\":7979:8067   */\n      swap2\n      pop\n        /* \"#utility.yul\":7795:8073   */\n      pop\n        /* \"#utility.yul\":7733:8073   */\n      swap3\n      swap2\n      pop\n      pop\n      jump\t// out\n        /* \"#utility.yul\":8079:8588   */\n    tag_29:\n        /* \"#utility.yul\":8148:8154   */\n      0x00\n        /* \"#utility.yul\":8197:8199   */\n      0x20\n        /* \"#utility.yul\":8185:8194   */\n      dup3\n        /* \"#utility.yul\":8176:8183   */\n      dup5\n        /* \"#utility.yul\":8172:8195   */\n      sub\n        /* \"#utility.yul\":8168:8200   */\n      slt\n        /* \"#utility.yul\":8165:8284   */\n      iszero\n      tag_213\n      jumpi\n        /* \"#utility.yul\":8203:8282   */\n      tag_214\n      tag_90\n      jump\t// in\n    tag_214:\n        /* \"#utility.yul\":8165:8284   */\n    tag_213:\n        /* \"#utility.yul\":8351:8352   */\n      0x00\n        /* \"#utility.yul\":8340:8349   */\n      dup3\n        /* \"#utility.yul\":8336:8353   */\n      add\n        /* \"#utility.yul\":8323:8354   */\n      calldataload\n        /* \"#utility.yul\":8381:8399   */\n      0xffffffffffffffff\n        /* \"#utility.yul\":8373:8379   */\n      dup2\n        /* \"#utility.yul\":8370:8400   */\n      gt\n        /* \"#utility.yul\":8367:8484   */\n      iszero\n      tag_215\n      jumpi\n        /* \"#utility.yul\":8403:8482   */\n      tag_216\n      tag_91\n      jump\t// in\n    tag_216:\n        /* \"#utility.yul\":8367:8484   */\n    tag_215:\n        /* \"#utility.yul\":8508:8571   */\n      tag_217\n        /* \"#utility.yul\":8563:8570   */\n      dup5\n        /* \"#utility.yul\":8554:8560   */\n      dup3\n        /* \"#utility.yul\":8543:8552   */\n      dup6\n        /* \"#utility.yul\":8539:8561   */\n      add\n        /* \"#utility.yul\":8508:8571   */\n      tag_114\n      jump\t// in\n    tag_217:\n        /* \"#utility.yul\":8498:8571   */\n      swap2\n      pop\n        /* \"#utility.yul\":8294:8581   */\n      pop\n        /* \"#utility.yul\":8079:8588   */\n      swap3\n      swap2\n      pop\n      pop\n      jump\t// out\n        /* \"#utility.yul\":8594:9309   */\n    tag_32:\n        /* \"#utility.yul\":8803:8807   */\n      0x00\n        /* \"#utility.yul\":8841:8843   */\n      0x60\n        /* \"#utility.yul\":8830:8839   */\n      dup3\n        /* \"#utility.yul\":8826:8844   */\n      add\n        /* \"#utility.yul\":8818:8844   */\n      swap1\n      pop\n        /* \"#utility.yul\":8890:8899   */\n      dup2\n        /* \"#utility.yul\":8884:8888   */\n      dup2\n        /* \"#utility.yul\":8880:8900   */\n      sub\n        /* \"#utility.yul\":8876:8877   */\n      0x00\n        /* \"#utility.yul\":8865:8874   */\n      dup4\n        /* \"#utility.yul\":8861:8878   */\n      add\n        /* \"#utility.yul\":8854:8901   */\n      mstore\n        /* \"#utility.yul\":8918:8996   */\n      tag_219\n        /* \"#utility.yul\":8991:8995   */\n      dup2\n        /* \"#utility.yul\":8982:8988   */\n      dup7\n        /* \"#utility.yul\":8918:8996   */\n      tag_100\n      jump\t// in\n    tag_219:\n        /* \"#utility.yul\":8910:8996   */\n      swap1\n      pop\n        /* \"#utility.yul\":9043:9052   */\n      dup2\n        /* \"#utility.yul\":9037:9041   */\n      dup2\n        /* \"#utility.yul\":9033:9053   */\n      sub\n        /* \"#utility.yul\":9028:9030   */\n      0x20\n        /* \"#utility.yul\":9017:9026   */\n      dup4\n        /* \"#utility.yul\":9013:9031   */\n      add\n        /* \"#utility.yul\":9006:9054   */\n      mstore\n        /* \"#utility.yul\":9071:9149   */\n      tag_220\n        /* \"#utility.yul\":9144:9148   */\n      dup2\n        /* \"#utility.yul\":9135:9141   */\n      dup6\n        /* \"#utility.yul\":9071:9149   */\n      tag_100\n      jump\t// in\n    tag_220:\n        /* \"#utility.yul\":9063:9149   */\n      swap1\n      pop\n        /* \"#utility.yul\":9196:9205   */\n      dup2\n        /* \"#utility.yul\":9190:9194   */\n      dup2\n        /* \"#utility.yul\":9186:9206   */\n      sub\n        /* \"#utility.yul\":9181:9183   */\n      0x40\n        /* \"#utility.yul\":9170:9179   */\n      dup4\n        /* \"#utility.yul\":9166:9184   */\n      add\n        /* \"#utility.yul\":9159:9207   */\n      mstore\n        /* \"#utility.yul\":9224:9302   */\n      tag_221\n        /* \"#utility.yul\":9297:9301   */\n      dup2\n        /* \"#utility.yul\":9288:9294   */\n      dup5\n        /* \"#utility.yul\":9224:9302   */\n      tag_100\n      jump\t// in\n    tag_221:\n        /* \"#utility.yul\":9216:9302   */\n      swap1\n      pop\n        /* \"#utility.yul\":8594:9309   */\n      swap5\n      swap4\n      pop\n      pop\n      pop\n      pop\n      jump\t// out\n        /* \"#utility.yul\":9315:9844   */\n    tag_35:\n        /* \"#utility.yul\":9386:9392   */\n      0x00\n        /* \"#utility.yul\":9394:9400   */\n      dup1\n        /* \"#utility.yul\":9443:9445   */\n      0x20\n        /* \"#utility.yul\":9431:9440   */\n      dup4\n        /* \"#utility.yul\":9422:9429   */\n      dup6\n        /* \"#utility.yul\":9418:9441   */\n      sub\n        /* \"#utility.yul\":9414:9446   */\n      slt\n        /* \"#utility.yul\":9411:9530   */\n      iszero\n      tag_223\n      jumpi\n        /* \"#utility.yul\":9449:9528   */\n      tag_224\n      tag_90\n      jump\t// in\n    tag_224:\n        /* \"#utility.yul\":9411:9530   */\n    tag_223:\n        /* \"#utility.yul\":9597:9598   */\n      0x00\n        /* \"#utility.yul\":9586:9595   */\n      dup4\n        /* \"#utility.yul\":9582:9599   */\n      add\n        /* \"#utility.yul\":9569:9600   */\n      calldataload\n        /* \"#utility.yul\":9627:9645   */\n      0xffffffffffffffff\n        /* \"#utility.yul\":9619:9625   */\n      dup2\n        /* \"#utility.yul\":9616:9646   */\n      gt\n        /* \"#utility.yul\":9613:9730   */\n      iszero\n      tag_225\n      jumpi\n        /* \"#utility.yul\":9649:9728   */\n      tag_226\n      tag_91\n      jump\t// in\n    tag_226:\n        /* \"#utility.yul\":9613:9730   */\n    tag_225:\n        /* \"#utility.yul\":9762:9827   */\n      tag_227\n        /* \"#utility.yul\":9819:9826   */\n      dup6\n        /* \"#utility.yul\":9810:9816   */\n      dup3\n        /* \"#utility.yul\":9799:9808   */\n      dup7\n        /* \"#utility.yul\":9795:9817   */\n      add\n        /* \"#utility.yul\":9762:9827   */\n      tag_106\n      jump\t// in\n    tag_227:\n        /* \"#utility.yul\":9744:9827   */\n      swap3\n      pop\n      swap3\n      pop\n        /* \"#utility.yul\":9540:9837   */\n      pop\n        /* \"#utility.yul\":9315:9844   */\n      swap3\n      pop\n      swap3\n      swap1\n      pop\n      jump\t// out\n        /* \"#utility.yul\":9850:10030   */\n    tag_115:\n        /* \"#utility.yul\":9898:9975   */\n      0x4e487b7100000000000000000000000000000000000000000000000000000000\n        /* \"#utility.yul\":9895:9896   */\n      0x00\n        /* \"#utility.yul\":9888:9976   */\n      mstore\n        /* \"#utility.yul\":9995:9999   */\n      0x22\n        /* \"#utility.yul\":9992:9993   */\n      0x04\n        /* \"#utility.yul\":9985:10000   */\n      mstore\n        /* \"#utility.yul\":10019:10023   */\n      0x24\n        /* \"#utility.yul\":10016:10017   */\n      0x00\n        /* \"#utility.yul\":10009:10024   */\n      revert\n        /* \"#utility.yul\":10036:10356   */\n    tag_39:\n        /* \"#utility.yul\":10080:10086   */\n      0x00\n        /* \"#utility.yul\":10117:10118   */\n      0x02\n        /* \"#utility.yul\":10111:10115   */\n      dup3\n        /* \"#utility.yul\":10107:10119   */\n      div\n        /* \"#utility.yul\":10097:10119   */\n      swap1\n      pop\n        /* \"#utility.yul\":10164:10165   */\n      0x01\n        /* \"#utility.yul\":10158:10162   */\n      dup3\n        /* \"#utility.yul\":10154:10166   */\n      and\n        /* \"#utility.yul\":10185:10203   */\n      dup1\n        /* \"#utility.yul\":10175:10256   */\n      tag_230\n      jumpi\n        /* \"#utility.yul\":10241:10245   */\n      0x7f\n        /* \"#utility.yul\":10233:10239   */\n      dup3\n        /* \"#utility.yul\":10229:10246   */\n      and\n        /* \"#utility.yul\":10219:10246   */\n      swap2\n      pop\n        /* \"#utility.yul\":10175:10256   */\n    tag_230:\n        /* \"#utility.yul\":10303:10305   */\n      0x20\n        /* \"#utility.yul\":10295:10301   */\n      dup3\n        /* \"#utility.yul\":10292:10306   */\n      lt\n        /* \"#utility.yul\":10272:10290   */\n      dup2\n        /* \"#utility.yul\":10269:10307   */\n      eq\n        /* \"#utility.yul\":10266:10350   */\n      iszero\n      tag_231\n      jumpi\n        /* \"#utility.yul\":10322:10340   */\n      tag_232\n      tag_115\n      jump\t// in\n    tag_232:\n        /* \"#utility.yul\":10266:10350   */\n    tag_231:\n        /* \"#utility.yul\":10087:10356   */\n      pop\n        /* \"#utility.yul\":10036:10356   */\n      swap2\n      swap1\n      pop\n      jump\t// out\n        /* \"#utility.yul\":10362:10510   */\n    tag_116:\n        /* \"#utility.yul\":10464:10475   */\n      0x00\n        /* \"#utility.yul\":10501:10504   */\n      dup2\n        /* \"#utility.yul\":10486:10504   */\n      swap1\n      pop\n        /* \"#utility.yul\":10362:10510   */\n      swap3\n      swap2\n      pop\n      pop\n      jump\t// out\n        /* \"#utility.yul\":10540:10857   */\n    tag_117:\n        /* \"#utility.yul\":10656:10659   */\n      0x00\n        /* \"#utility.yul\":10677:10766   */\n      tag_235\n        /* \"#utility.yul\":10759:10765   */\n      dup4\n        /* \"#utility.yul\":10754:10757   */\n      dup6\n        /* \"#utility.yul\":10677:10766   */\n      tag_116\n      jump\t// in\n    tag_235:\n        /* \"#utility.yul\":10670:10766   */\n      swap4\n      pop\n        /* \"#utility.yul\":10776:10819   */\n      tag_236\n        /* \"#utility.yul\":10812:10818   */\n      dup4\n        /* \"#utility.yul\":10807:10810   */\n      dup6\n        /* \"#utility.yul\":10800:10805   */\n      dup5\n        /* \"#utility.yul\":10776:10819   */\n      tag_112\n      jump\t// in\n    tag_236:\n        /* \"#utility.yul\":10844:10850   */\n      dup3\n        /* \"#utility.yul\":10839:10842   */\n      dup5\n        /* \"#utility.yul\":10835:10851   */\n      add\n        /* \"#utility.yul\":10828:10851   */\n      swap1\n      pop\n        /* \"#utility.yul\":10540:10857   */\n      swap4\n      swap3\n      pop\n      pop\n      pop\n      jump\t// out\n        /* \"#utility.yul\":10863:11158   */\n    tag_47:\n        /* \"#utility.yul\":11005:11008   */\n      0x00\n        /* \"#utility.yul\":11027:11132   */\n      tag_238\n        /* \"#utility.yul\":11128:11131   */\n      dup3\n        /* \"#utility.yul\":11119:11125   */\n      dup5\n        /* \"#utility.yul\":11111:11117   */\n      dup7\n        /* \"#utility.yul\":11027:11132   */\n      tag_117\n      jump\t// in\n    tag_238:\n        /* \"#utility.yul\":11020:11132   */\n      swap2\n      pop\n        /* \"#utility.yul\":11149:11152   */\n      dup2\n        /* \"#utility.yul\":11142:11152   */\n      swap1\n      pop\n        /* \"#utility.yul\":10863:11158   */\n      swap4\n      swap3\n      pop\n      pop\n      pop\n      jump\t// out\n\n    auxdata: 0xa26469706673582212204e12db6ecd1b203eeee0de3379ccac55d6e23cc7afb70d9ecfb22a17fc9edca164736f6c63430008090033\n}\n","bytecode":{"linkReferences":{},"object":"608060405234801561001057600080fd5b50610d71806100206000396000f3fe608060405234801561001057600080fd5b50600436106100625760003560e01c80633d9760931461006757806369f465b61461008557806375627289146100b557806399138ee2146100d1578063b77299a8146100ed578063e7d1b3661461011f575b600080fd5b61006f61013b565b60405161007c9190610763565b60405180910390f35b61009f600480360381019061009a91906107f0565b61018f565b6040516100ac91906108b6565b60405180910390f35b6100cf60048036038101906100ca9190610904565b61022f565b005b6100eb60048036038101906100e69190610996565b610289565b005b61010760048036038101906101029190610baf565b6103f4565b60405161011693929190610bf8565b60405180910390f35b61013960048036038101906101349190610c44565b6105cc565b005b6000600160003373ffffffffffffffffffffffffffffffffffffffff1673ffffffffffffffffffffffffffffffffffffffff16815260200190815260200160002060009054906101000a900460ff16905090565b600260205280600052604060002060009150905080546101ae90610cc0565b80601f01602080910402602001604051908101604052809291908181526020018280546101da90610cc0565b80156102275780601f106101fc57610100808354040283529160200191610227565b820191906000526020600020905b81548152906001019060200180831161020a57829003601f168201915b505050505081565b80600160003373ffffffffffffffffffffffffffffffffffffffff1673ffffffffffffffffffffffffffffffffffffffff16815260200190815260200160002060006101000a81548160ff02191690831515021790555050565b604051806060016040528087878080601f016020809104026020016040519081016040528093929190818152602001838380828437600081840152601f19601f82011690508083019250505050505050815260200185858080601f016020809104026020016040519081016040528093929190818152602001838380828437600081840152601f19601f82011690508083019250505050505050815260200183838080601f016020809104026020016040519081016040528093929190818152602001838380828437600081840152601f19601f8201169050808301925050505050505081525060008989604051610382929190610d22565b908152602001604051809103902060008201518160000190805190602001906103ac92919061061f565b5060208201518160010190805190602001906103c992919061061f565b5060408201518160020190805190602001906103e692919061061f565b509050505050505050505050565b60008180516020810182018051848252602083016020850120818352809550505050505060009150905080600001805461042d90610cc0565b80601f016020809104026020016040519081016040528092919081815260200182805461045990610cc0565b80156104a65780601f1061047b576101008083540402835291602001916104a6565b820191906000526020600020905b81548152906001019060200180831161048957829003601f168201915b5050505050908060010180546104bb90610cc0565b80601f01602080910402602001604051908101604052809291908181526020018280546104e790610cc0565b80156105345780601f1061050957610100808354040283529160200191610534565b820191906000526020600020905b81548152906001019060200180831161051757829003601f168201915b50505050509080600201805461054990610cc0565b80601f016020809104026020016040519081016040528092919081815260200182805461057590610cc0565b80156105c25780601f10610597576101008083540402835291602001916105c2565b820191906000526020600020905b8154815290600101906020018083116105a557829003601f168201915b5050505050905083565b8181600260003373ffffffffffffffffffffffffffffffffffffffff1673ffffffffffffffffffffffffffffffffffffffff168152602001908152602001600020919061061a9291906106a5565b505050565b82805461062b90610cc0565b90600052602060002090601f01602090048101928261064d5760008555610694565b82601f1061066657805160ff1916838001178555610694565b82800160010185558215610694579182015b82811115610693578251825591602001919060010190610678565b5b5090506106a1919061072b565b5090565b8280546106b190610cc0565b90600052602060002090601f0160209004810192826106d3576000855561071a565b82601f106106ec57803560ff191683800117855561071a565b8280016001018555821561071a579182015b828111156107195782358255916020019190600101906106fe565b5b509050610727919061072b565b5090565b5b8082111561074457600081600090555060010161072c565b5090565b60008115159050919050565b61075d81610748565b82525050565b60006020820190506107786000830184610754565b92915050565b6000604051905090565b600080fd5b600080fd5b600073ffffffffffffffffffffffffffffffffffffffff82169050919050565b60006107bd82610792565b9050919050565b6107cd816107b2565b81146107d857600080fd5b50565b6000813590506107ea816107c4565b92915050565b60006020828403121561080657610805610788565b5b6000610814848285016107db565b91505092915050565b600081519050919050565b600082825260208201905092915050565b60005b8381101561085757808201518184015260208101905061083c565b83811115610866576000848401525b50505050565b6000601f19601f8301169050919050565b60006108888261081d565b6108928185610828565b93506108a2818560208601610839565b6108ab8161086c565b840191505092915050565b600060208201905081810360008301526108d0818461087d565b905092915050565b6108e181610748565b81146108ec57600080fd5b50565b6000813590506108fe816108d8565b92915050565b60006020828403121561091a57610919610788565b5b6000610928848285016108ef565b91505092915050565b600080fd5b600080fd5b600080fd5b60008083601f84011261095657610955610931565b5b8235905067ffffffffffffffff81111561097357610972610936565b5b60208301915083600182028301111561098f5761098e61093b565b5b9250929050565b6000806000806000806000806080898b0312156109b6576109b5610788565b5b600089013567ffffffffffffffff8111156109d4576109d361078d565b5b6109e08b828c01610940565b9850985050602089013567ffffffffffffffff811115610a0357610a0261078d565b5b610a0f8b828c01610940565b9650965050604089013567ffffffffffffffff811115610a3257610a3161078d565b5b610a3e8b828c01610940565b9450945050606089013567ffffffffffffffff811115610a6157610a6061078d565b5b610a6d8b828c01610940565b92509250509295985092959890939650565b600080fd5b7f4e487b7100000000000000000000000000000000000000000000000000000000600052604160045260246000fd5b610abc8261086c565b810181811067ffffffffffffffff82111715610adb57610ada610a84565b5b80604052505050565b6000610aee61077e565b9050610afa8282610ab3565b919050565b600067ffffffffffffffff821115610b1a57610b19610a84565b5b610b238261086c565b9050602081019050919050565b82818337600083830152505050565b6000610b52610b4d84610aff565b610ae4565b905082815260208101848484011115610b6e57610b6d610a7f565b5b610b79848285610b30565b509392505050565b600082601f830112610b9657610b95610931565b5b8135610ba6848260208601610b3f565b91505092915050565b600060208284031215610bc557610bc4610788565b5b600082013567ffffffffffffffff811115610be357610be261078d565b5b610bef84828501610b81565b91505092915050565b60006060820190508181036000830152610c12818661087d565b90508181036020830152610c26818561087d565b90508181036040830152610c3a818461087d565b9050949350505050565b60008060208385031215610c5b57610c5a610788565b5b600083013567ffffffffffffffff811115610c7957610c7861078d565b5b610c8585828601610940565b92509250509250929050565b7f4e487b7100000000000000000000000000000000000000000000000000000000600052602260045260246000fd5b60006002820490506001821680610cd857607f821691505b60208210811415610cec57610ceb610c91565b5b50919050565b600081905092915050565b6000610d098385610cf2565b9350610d16838584610b30565b82840190509392505050565b6000610d2f828486610cfd565b9150819050939250505056fea26469706673582212204e12db6ecd1b203eeee0de3379ccac55d6e23cc7afb70d9ecfb22a17fc9edca164736f6c63430008090033","opcodes":"PUSH1 0x80 PUSH1 0x40 MSTORE CALLVALUE DUP1 ISZERO PUSH2 0x10 JUMPI PUSH1 0x0 DUP1 REVERT JUMPDEST POP PUSH2 0xD71 DUP1 PUSH2 0x20 PUSH1 0x0 CODECOPY PUSH1 0x0 RETURN INVALID PUSH1 0x80 PUSH1 0x40 MSTORE CALLVALUE DUP1 ISZERO PUSH2 0x10 JUMPI PUSH1 0x0 DUP1 REVERT JUMPDEST POP PUSH1 0x4 CALLDATASIZE LT PUSH2 0x62 JUMPI PUSH1 0x0 CALLDATALOAD PUSH1 0xE0 SHR DUP1 PUSH4 0x3D976093 EQ PUSH2 0x67 JUMPI DUP1 PUSH4 0x69F465B6 EQ PUSH2 0x85 JUMPI DUP1 PUSH4 0x75627289 EQ PUSH2 0xB5 JUMPI DUP1 PUSH4 0x99138EE2 EQ PUSH2 0xD1 JUMPI DUP1 PUSH4 0xB77299A8 EQ PUSH2 0xED JUMPI DUP1 PUSH4 0xE7D1B366 EQ PUSH2 0x11F JUMPI JUMPDEST PUSH1 0x0 DUP1 REVERT JUMPDEST PUSH2 0x6F PUSH2 0x13B JUMP JUMPDEST PUSH1 0x40 MLOAD PUSH2 0x7C SWAP2 SWAP1 PUSH2 0x763 JUMP JUMPDEST PUSH1 0x40 MLOAD DUP1 SWAP2 SUB SWAP1 RETURN JUMPDEST PUSH2 0x9F PUSH1 0x4 DUP1 CALLDATASIZE SUB DUP2 ADD SWAP1 PUSH2 0x9A SWAP2 SWAP1 PUSH2 0x7F0 JUMP JUMPDEST PUSH2 0x18F JUMP JUMPDEST PUSH1 0x40 MLOAD PUSH2 0xAC SWAP2 SWAP1 PUSH2 0x8B6 JUMP JUMPDEST PUSH1 0x40 MLOAD DUP1 SWAP2 SUB SWAP1 RETURN JUMPDEST PUSH2 0xCF PUSH1 0x4 DUP1 CALLDATASIZE SUB DUP2 ADD SWAP1 PUSH2 0xCA SWAP2 SWAP1 PUSH2 0x904 JUMP JUMPDEST PUSH2 0x22F JUMP JUMPDEST STOP JUMPDEST PUSH2 0xEB PUSH1 0x4 DUP1 CALLDATASIZE SUB DUP2 ADD SWAP1 PUSH2 0xE6 SWAP2 SWAP1 PUSH2 0x996 JUMP JUMPDEST PUSH2 0x289 JUMP JUMPDEST STOP JUMPDEST PUSH2 0x107 PUSH1 0x4 DUP1 CALLDATASIZE SUB DUP2 ADD SWAP1 PUSH2 0x102 SWAP2 SWAP1 PUSH2 0xBAF JUMP JUMPDEST PUSH2 0x3F4 JUMP JUMPDEST PUSH1 0x40 MLOAD PUSH2 0x116 SWAP4 SWAP3 SWAP2 SWAP1 PUSH2 0xBF8 JUMP JUMPDEST PUSH1 0x40 MLOAD DUP1 SWAP2 SUB SWAP1 RETURN JUMPDEST PUSH2 0x139 PUSH1 0x4 DUP1 CALLDATASIZE SUB DUP2 ADD SWAP1 PUSH2 0x134 SWAP2 SWAP1 PUSH2 0xC44 JUMP JUMPDEST PUSH2 0x5CC JUMP JUMPDEST STOP JUMPDEST PUSH1 0x0 PUSH1 0x1 PUSH1 0x0 CALLER PUSH20 0xFFFFFFFFFFFFFFFFFFFFFFFFFFFFFFFFFFFFFFFF AND PUSH20 0xFFFFFFFFFFFFFFFFFFFFFFFFFFFFFFFFFFFFFFFF AND DUP2 MSTORE PUSH1 0x20 ADD SWAP1 DUP2 MSTORE PUSH1 0x20 ADD PUSH1 0x0 KECCAK256 PUSH1 0x0 SWAP1 SLOAD SWAP1 PUSH2 0x100 EXP SWAP1 DIV PUSH1 0xFF AND SWAP1 POP SWAP1 JUMP JUMPDEST PUSH1 0x2 PUSH1 0x20 MSTORE DUP1 PUSH1 0x0 MSTORE PUSH1 0x40 PUSH1 0x0 KECCAK256 PUSH1 0x0 SWAP2 POP SWAP1 POP DUP1 SLOAD PUSH2 0x1AE SWAP1 PUSH2 0xCC0 JUMP JUMPDEST DUP1 PUSH1 0x1F ADD PUSH1 0x20 DUP1 SWAP2 DIV MUL PUSH1 0x20 ADD PUSH1 0x40 MLOAD SWAP1 DUP2 ADD PUSH1 0x40 MSTORE DUP1 SWAP3 SWAP2 SWAP1 DUP2 DUP2 MSTORE PUSH1 0x20 ADD DUP3 DUP1 SLOAD PUSH2 0x1DA SWAP1 PUSH2 0xCC0 JUMP JUMPDEST DUP1 ISZERO PUSH2 0x227 JUMPI DUP1 PUSH1 0x1F LT PUSH2 0x1FC JUMPI PUSH2 0x100 DUP1 DUP4 SLOAD DIV MUL DUP4 MSTORE SWAP2 PUSH1 0x20 ADD SWAP2 PUSH2 0x227 JUMP JUMPDEST DUP3 ADD SWAP2 SWAP1 PUSH1 0x0 MSTORE PUSH1 0x20 PUSH1 0x0 KECCAK256 SWAP1 JUMPDEST DUP2 SLOAD DUP2 MSTORE SWAP1 PUSH1 0x1 ADD SWAP1 PUSH1 0x20 ADD DUP1 DUP4 GT PUSH2 0x20A JUMPI DUP3 SWAP1 SUB PUSH1 0x1F AND DUP3 ADD SWAP2 JUMPDEST POP POP POP POP POP DUP2 JUMP JUMPDEST DUP1 PUSH1 0x1 PUSH1 0x0 CALLER PUSH20 0xFFFFFFFFFFFFFFFFFFFFFFFFFFFFFFFFFFFFFFFF AND PUSH20 0xFFFFFFFFFFFFFFFFFFFFFFFFFFFFFFFFFFFFFFFF AND DUP2 MSTORE PUSH1 0x20 ADD SWAP1 DUP2 MSTORE PUSH1 0x20 ADD PUSH1 0x0 KECCAK256 PUSH1 0x0 PUSH2 0x100 EXP DUP2 SLOAD DUP2 PUSH1 0xFF MUL NOT AND SWAP1 DUP4 ISZERO ISZERO MUL OR SWAP1 SSTORE POP POP JUMP JUMPDEST PUSH1 0x40 MLOAD DUP1 PUSH1 0x60 ADD PUSH1 0x40 MSTORE DUP1 DUP8 DUP8 DUP1 DUP1 PUSH1 0x1F ADD PUSH1 0x20 DUP1 SWAP2 DIV MUL PUSH1 0x20 ADD PUSH1 0x40 MLOAD SWAP1 DUP2 ADD PUSH1 0x40 MSTORE DUP1 SWAP4 SWAP3 SWAP2 SWAP1 DUP2 DUP2 MSTORE PUSH1 0x20 ADD DUP4 DUP4 DUP1 DUP3 DUP5 CALLDATACOPY PUSH1 0x0 DUP2 DUP5 ADD MSTORE PUSH1 0x1F NOT PUSH1 0x1F DUP3 ADD AND SWAP1 POP DUP1 DUP4 ADD SWAP3 POP POP POP POP POP POP POP DUP2 MSTORE PUSH1 0x20 ADD DUP6 DUP6 DUP1 DUP1 PUSH1 0x1F ADD PUSH1 0x20 DUP1 SWAP2 DIV MUL PUSH1 0x20 ADD PUSH1 0x40 MLOAD SWAP1 DUP2 ADD PUSH1 0x40 MSTORE DUP1 SWAP4 SWAP3 SWAP2 SWAP1 DUP2 DUP2 MSTORE PUSH1 0x20 ADD DUP4 DUP4 DUP1 DUP3 DUP5 CALLDATACOPY PUSH1 0x0 DUP2 DUP5 ADD MSTORE PUSH1 0x1F NOT PUSH1 0x1F DUP3 ADD AND SWAP1 POP DUP1 DUP4 ADD SWAP3 POP POP POP POP POP POP POP DUP2 MSTORE PUSH1 0x20 ADD DUP4 DUP4 DUP1 DUP1 PUSH1 0x1F ADD PUSH1 0x20 DUP1 SWAP2 DIV MUL PUSH1 0x20 ADD PUSH1 0x40 MLOAD SWAP1 DUP2 ADD PUSH1 0x40 MSTORE DUP1 SWAP4 SWAP3 SWAP2 SWAP1 DUP2 DUP2 MSTORE PUSH1 0x20 ADD DUP4 DUP4 DUP1 DUP3 DUP5 CALLDATACOPY PUSH1 0x0 DUP2 DUP5 ADD MSTORE PUSH1 0x1F NOT PUSH1 0x1F DUP3 ADD AND SWAP1 POP DUP1 DUP4 ADD SWAP3 POP POP POP POP POP POP POP DUP2 MSTORE POP PUSH1 0x0 DUP10 DUP10 PUSH1 0x40 MLOAD PUSH2 0x382 SWAP3 SWAP2 SWAP1 PUSH2 0xD22 JUMP JUMPDEST SWAP1 DUP2 MSTORE PUSH1 0x20 ADD PUSH1 0x40 MLOAD DUP1 SWAP2 SUB SWAP1 KECCAK256 PUSH1 0x0 DUP3 ADD MLOAD DUP2 PUSH1 0x0 ADD SWAP1 DUP1 MLOAD SWAP1 PUSH1 0x20 ADD SWAP1 PUSH2 0x3AC SWAP3 SWAP2 SWAP1 PUSH2 0x61F JUMP JUMPDEST POP PUSH1 0x20 DUP3 ADD MLOAD DUP2 PUSH1 0x1 ADD SWAP1 DUP1 MLOAD SWAP1 PUSH1 0x20 ADD SWAP1 PUSH2 0x3C9 SWAP3 SWAP2 SWAP1 PUSH2 0x61F JUMP JUMPDEST POP PUSH1 0x40 DUP3 ADD MLOAD DUP2 PUSH1 0x2 ADD SWAP1 DUP1 MLOAD SWAP1 PUSH1 0x20 ADD SWAP1 PUSH2 0x3E6 SWAP3 SWAP2 SWAP1 PUSH2 0x61F JUMP JUMPDEST POP SWAP1 POP POP POP POP POP POP POP POP POP POP JUMP JUMPDEST PUSH1 0x0 DUP2 DUP1 MLOAD PUSH1 0x20 DUP2 ADD DUP3 ADD DUP1 MLOAD DUP5 DUP3 MSTORE PUSH1 0x20 DUP4 ADD PUSH1 0x20 DUP6 ADD KECCAK256 DUP2 DUP4 MSTORE DUP1 SWAP6 POP POP POP POP POP POP PUSH1 0x0 SWAP2 POP SWAP1 POP DUP1 PUSH1 0x0 ADD DUP1 SLOAD PUSH2 0x42D SWAP1 PUSH2 0xCC0 JUMP JUMPDEST DUP1 PUSH1 0x1F ADD PUSH1 0x20 DUP1 SWAP2 DIV MUL PUSH1 0x20 ADD PUSH1 0x40 MLOAD SWAP1 DUP2 ADD PUSH1 0x40 MSTORE DUP1 SWAP3 SWAP2 SWAP1 DUP2 DUP2 MSTORE PUSH1 0x20 ADD DUP3 DUP1 SLOAD PUSH2 0x459 SWAP1 PUSH2 0xCC0 JUMP JUMPDEST DUP1 ISZERO PUSH2 0x4A6 JUMPI DUP1 PUSH1 0x1F LT PUSH2 0x47B JUMPI PUSH2 0x100 DUP1 DUP4 SLOAD DIV MUL DUP4 MSTORE SWAP2 PUSH1 0x20 ADD SWAP2 PUSH2 0x4A6 JUMP JUMPDEST DUP3 ADD SWAP2 SWAP1 PUSH1 0x0 MSTORE PUSH1 0x20 PUSH1 0x0 KECCAK256 SWAP1 JUMPDEST DUP2 SLOAD DUP2 MSTORE SWAP1 PUSH1 0x1 ADD SWAP1 PUSH1 0x20 ADD DUP1 DUP4 GT PUSH2 0x489 JUMPI DUP3 SWAP1 SUB PUSH1 0x1F AND DUP3 ADD SWAP2 JUMPDEST POP POP POP POP POP SWAP1 DUP1 PUSH1 0x1 ADD DUP1 SLOAD PUSH2 0x4BB SWAP1 PUSH2 0xCC0 JUMP JUMPDEST DUP1 PUSH1 0x1F ADD PUSH1 0x20 DUP1 SWAP2 DIV MUL PUSH1 0x20 ADD PUSH1 0x40 MLOAD SWAP1 DUP2 ADD PUSH1 0x40 MSTORE DUP1 SWAP3 SWAP2 SWAP1 DUP2 DUP2 MSTORE PUSH1 0x20 ADD DUP3 DUP1 SLOAD PUSH2 0x4E7 SWAP1 PUSH2 0xCC0 JUMP JUMPDEST DUP1 ISZERO PUSH2 0x534 JUMPI DUP1 PUSH1 0x1F LT PUSH2 0x509 JUMPI PUSH2 0x100 DUP1 DUP4 SLOAD DIV MUL DUP4 MSTORE SWAP2 PUSH1 0x20 ADD SWAP2 PUSH2 0x534 JUMP JUMPDEST DUP3 ADD SWAP2 SWAP1 PUSH1 0x0 MSTORE PUSH1 0x20 PUSH1 0x0 KECCAK256 SWAP1 JUMPDEST DUP2 SLOAD DUP2 MSTORE SWAP1 PUSH1 0x1 ADD SWAP1 PUSH1 0x20 ADD DUP1 DUP4 GT PUSH2 0x517 JUMPI DUP3 SWAP1 SUB PUSH1 0x1F AND DUP3 ADD SWAP2 JUMPDEST POP POP POP POP POP SWAP1 DUP1 PUSH1 0x2 ADD DUP1 SLOAD PUSH2 0x549 SWAP1 PUSH2 0xCC0 JUMP JUMPDEST DUP1 PUSH1 0x1F ADD PUSH1 0x20 DUP1 SWAP2 DIV MUL PUSH1 0x20 ADD PUSH1 0x40 MLOAD SWAP1 DUP2 ADD PUSH1 0x40 MSTORE DUP1 SWAP3 SWAP2 SWAP1 DUP2 DUP2 MSTORE PUSH1 0x20 ADD DUP3 DUP1 SLOAD PUSH2 0x575 SWAP1 PUSH2 0xCC0 JUMP JUMPDEST DUP1 ISZERO PUSH2 0x5C2 JUMPI DUP1 PUSH1 0x1F LT PUSH2 0x597 JUMPI PUSH2 0x100 DUP1 DUP4 SLOAD DIV MUL DUP4 MSTORE SWAP2 PUSH1 0x20 ADD SWAP2 PUSH2 0x5C2 JUMP JUMPDEST DUP3 ADD SWAP2 SWAP1 PUSH1 0x0 MSTORE PUSH1 0x20 PUSH1 0x0 KECCAK256 SWAP1 JUMPDEST DUP2 SLOAD DUP2 MSTORE SWAP1 PUSH1 0x1 ADD SWAP1 PUSH1 0x20 ADD DUP1 DUP4 GT PUSH2 0x5A5 JUMPI DUP3 SWAP1 SUB PUSH1 0x1F AND DUP3 ADD SWAP2 JUMPDEST POP POP POP POP POP SWAP1 POP DUP4 JUMP JUMPDEST DUP2 DUP2 PUSH1 0x2 PUSH1 0x0 CALLER PUSH20 0xFFFFFFFFFFFFFFFFFFFFFFFFFFFFFFFFFFFFFFFF AND PUSH20 0xFFFFFFFFFFFFFFFFFFFFFFFFFFFFFFFFFFFFFFFF AND DUP2 MSTORE PUSH1 0x20 ADD SWAP1 DUP2 MSTORE PUSH1 0x20 ADD PUSH1 0x0 KECCAK256 SWAP2 SWAP1 PUSH2 0x61A SWAP3 SWAP2 SWAP1 PUSH2 0x6A5 JUMP JUMPDEST POP POP POP JUMP JUMPDEST DUP3 DUP1 SLOAD PUSH2 0x62B SWAP1 PUSH2 0xCC0 JUMP JUMPDEST SWAP1 PUSH1 0x0 MSTORE PUSH1 0x20 PUSH1 0x0 KECCAK256 SWAP1 PUSH1 0x1F ADD PUSH1 0x20 SWAP1 DIV DUP2 ADD SWAP3 DUP3 PUSH2 0x64D JUMPI PUSH1 0x0 DUP6 SSTORE PUSH2 0x694 JUMP JUMPDEST DUP3 PUSH1 0x1F LT PUSH2 0x666 JUMPI DUP1 MLOAD PUSH1 0xFF NOT AND DUP4 DUP1 ADD OR DUP6 SSTORE PUSH2 0x694 JUMP JUMPDEST DUP3 DUP1 ADD PUSH1 0x1 ADD DUP6 SSTORE DUP3 ISZERO PUSH2 0x694 JUMPI SWAP2 DUP3 ADD JUMPDEST DUP3 DUP2 GT ISZERO PUSH2 0x693 JUMPI DUP3 MLOAD DUP3 SSTORE SWAP2 PUSH1 0x20 ADD SWAP2 SWAP1 PUSH1 0x1 ADD SWAP1 PUSH2 0x678 JUMP JUMPDEST JUMPDEST POP SWAP1 POP PUSH2 0x6A1 SWAP2 SWAP1 PUSH2 0x72B JUMP JUMPDEST POP SWAP1 JUMP JUMPDEST DUP3 DUP1 SLOAD PUSH2 0x6B1 SWAP1 PUSH2 0xCC0 JUMP JUMPDEST SWAP1 PUSH1 0x0 MSTORE PUSH1 0x20 PUSH1 0x0 KECCAK256 SWAP1 PUSH1 0x1F ADD PUSH1 0x20 SWAP1 DIV DUP2 ADD SWAP3 DUP3 PUSH2 0x6D3 JUMPI PUSH1 0x0 DUP6 SSTORE PUSH2 0x71A JUMP JUMPDEST DUP3 PUSH1 0x1F LT PUSH2 0x6EC JUMPI DUP1 CALLDATALOAD PUSH1 0xFF NOT AND DUP4 DUP1 ADD OR DUP6 SSTORE PUSH2 0x71A JUMP JUMPDEST DUP3 DUP1 ADD PUSH1 0x1 ADD DUP6 SSTORE DUP3 ISZERO PUSH2 0x71A JUMPI SWAP2 DUP3 ADD JUMPDEST DUP3 DUP2 GT ISZERO PUSH2 0x719 JUMPI DUP3 CALLDATALOAD DUP3 SSTORE SWAP2 PUSH1 0x20 ADD SWAP2 SWAP1 PUSH1 0x1 ADD SWAP1 PUSH2 0x6FE JUMP JUMPDEST JUMPDEST POP SWAP1 POP PUSH2 0x727 SWAP2 SWAP1 PUSH2 0x72B JUMP JUMPDEST POP SWAP1 JUMP JUMPDEST JUMPDEST DUP1 DUP3 GT ISZERO PUSH2 0x744 JUMPI PUSH1 0x0 DUP2 PUSH1 0x0 SWAP1 SSTORE POP PUSH1 0x1 ADD PUSH2 0x72C JUMP JUMPDEST POP SWAP1 JUMP JUMPDEST PUSH1 0x0 DUP2 ISZERO ISZERO SWAP1 POP SWAP2 SWAP1 POP JUMP JUMPDEST PUSH2 0x75D DUP2 PUSH2 0x748 JUMP JUMPDEST DUP3 MSTORE POP POP JUMP JUMPDEST PUSH1 0x0 PUSH1 0x20 DUP3 ADD SWAP1 POP PUSH2 0x778 PUSH1 0x0 DUP4 ADD DUP5 PUSH2 0x754 JUMP JUMPDEST SWAP3 SWAP2 POP POP JUMP JUMPDEST PUSH1 0x0 PUSH1 0x40 MLOAD SWAP1 POP SWAP1 JUMP JUMPDEST PUSH1 0x0 DUP1 REVERT JUMPDEST PUSH1 0x0 DUP1 REVERT JUMPDEST PUSH1 0x0 PUSH20 0xFFFFFFFFFFFFFFFFFFFFFFFFFFFFFFFFFFFFFFFF DUP3 AND SWAP1 POP SWAP2 SWAP1 POP JUMP JUMPDEST PUSH1 0x0 PUSH2 0x7BD DUP3 PUSH2 0x792 JUMP JUMPDEST SWAP1 POP SWAP2 SWAP1 POP JUMP JUMPDEST PUSH2 0x7CD DUP2 PUSH2 0x7B2 JUMP JUMPDEST DUP2 EQ PUSH2 0x7D8 JUMPI PUSH1 0x0 DUP1 REVERT JUMPDEST POP JUMP JUMPDEST PUSH1 0x0 DUP2 CALLDATALOAD SWAP1 POP PUSH2 0x7EA DUP2 PUSH2 0x7C4 JUMP JUMPDEST SWAP3 SWAP2 POP POP JUMP JUMPDEST PUSH1 0x0 PUSH1 0x20 DUP3 DUP5 SUB SLT ISZERO PUSH2 0x806 JUMPI PUSH2 0x805 PUSH2 0x788 JUMP JUMPDEST JUMPDEST PUSH1 0x0 PUSH2 0x814 DUP5 DUP3 DUP6 ADD PUSH2 0x7DB JUMP JUMPDEST SWAP2 POP POP SWAP3 SWAP2 POP POP JUMP JUMPDEST PUSH1 0x0 DUP2 MLOAD SWAP1 POP SWAP2 SWAP1 POP JUMP JUMPDEST PUSH1 0x0 DUP3 DUP3 MSTORE PUSH1 0x20 DUP3 ADD SWAP1 POP SWAP3 SWAP2 POP POP JUMP JUMPDEST PUSH1 0x0 JUMPDEST DUP4 DUP2 LT ISZERO PUSH2 0x857 JUMPI DUP1 DUP3 ADD MLOAD DUP2 DUP5 ADD MSTORE PUSH1 0x20 DUP2 ADD SWAP1 POP PUSH2 0x83C JUMP JUMPDEST DUP4 DUP2 GT ISZERO PUSH2 0x866 JUMPI PUSH1 0x0 DUP5 DUP5 ADD MSTORE JUMPDEST POP POP POP POP JUMP JUMPDEST PUSH1 0x0 PUSH1 0x1F NOT PUSH1 0x1F DUP4 ADD AND SWAP1 POP SWAP2 SWAP1 POP JUMP JUMPDEST PUSH1 0x0 PUSH2 0x888 DUP3 PUSH2 0x81D JUMP JUMPDEST PUSH2 0x892 DUP2 DUP6 PUSH2 0x828 JUMP JUMPDEST SWAP4 POP PUSH2 0x8A2 DUP2 DUP6 PUSH1 0x20 DUP7 ADD PUSH2 0x839 JUMP JUMPDEST PUSH2 0x8AB DUP2 PUSH2 0x86C JUMP JUMPDEST DUP5 ADD SWAP2 POP POP SWAP3 SWAP2 POP POP JUMP JUMPDEST PUSH1 0x0 PUSH1 0x20 DUP3 ADD SWAP1 POP DUP2 DUP2 SUB PUSH1 0x0 DUP4 ADD MSTORE PUSH2 0x8D0 DUP2 DUP5 PUSH2 0x87D JUMP JUMPDEST SWAP1 POP SWAP3 SWAP2 POP POP JUMP JUMPDEST PUSH2 0x8E1 DUP2 PUSH2 0x748 JUMP JUMPDEST DUP2 EQ PUSH2 0x8EC JUMPI PUSH1 0x0 DUP1 REVERT JUMPDEST POP JUMP JUMPDEST PUSH1 0x0 DUP2 CALLDATALOAD SWAP1 POP PUSH2 0x8FE DUP2 PUSH2 0x8D8 JUMP JUMPDEST SWAP3 SWAP2 POP POP JUMP JUMPDEST PUSH1 0x0 PUSH1 0x20 DUP3 DUP5 SUB SLT ISZERO PUSH2 0x91A JUMPI PUSH2 0x919 PUSH2 0x788 JUMP JUMPDEST JUMPDEST PUSH1 0x0 PUSH2 0x928 DUP5 DUP3 DUP6 ADD PUSH2 0x8EF JUMP JUMPDEST SWAP2 POP POP SWAP3 SWAP2 POP POP JUMP JUMPDEST PUSH1 0x0 DUP1 REVERT JUMPDEST PUSH1 0x0 DUP1 REVERT JUMPDEST PUSH1 0x0 DUP1 REVERT JUMPDEST PUSH1 0x0 DUP1 DUP4 PUSH1 0x1F DUP5 ADD SLT PUSH2 0x956 JUMPI PUSH2 0x955 PUSH2 0x931 JUMP JUMPDEST JUMPDEST DUP3 CALLDATALOAD SWAP1 POP PUSH8 0xFFFFFFFFFFFFFFFF DUP2 GT ISZERO PUSH2 0x973 JUMPI PUSH2 0x972 PUSH2 0x936 JUMP JUMPDEST JUMPDEST PUSH1 0x20 DUP4 ADD SWAP2 POP DUP4 PUSH1 0x1 DUP3 MUL DUP4 ADD GT ISZERO PUSH2 0x98F JUMPI PUSH2 0x98E PUSH2 0x93B JUMP JUMPDEST JUMPDEST SWAP3 POP SWAP3 SWAP1 POP JUMP JUMPDEST PUSH1 0x0 DUP1 PUSH1 0x0 DUP1 PUSH1 0x0 DUP1 PUSH1 0x0 DUP1 PUSH1 0x80 DUP10 DUP12 SUB SLT ISZERO PUSH2 0x9B6 JUMPI PUSH2 0x9B5 PUSH2 0x788 JUMP JUMPDEST JUMPDEST PUSH1 0x0 DUP10 ADD CALLDATALOAD PUSH8 0xFFFFFFFFFFFFFFFF DUP2 GT ISZERO PUSH2 0x9D4 JUMPI PUSH2 0x9D3 PUSH2 0x78D JUMP JUMPDEST JUMPDEST PUSH2 0x9E0 DUP12 DUP3 DUP13 ADD PUSH2 0x940 JUMP JUMPDEST SWAP9 POP SWAP9 POP POP PUSH1 0x20 DUP10 ADD CALLDATALOAD PUSH8 0xFFFFFFFFFFFFFFFF DUP2 GT ISZERO PUSH2 0xA03 JUMPI PUSH2 0xA02 PUSH2 0x78D JUMP JUMPDEST JUMPDEST PUSH2 0xA0F DUP12 DUP3 DUP13 ADD PUSH2 0x940 JUMP JUMPDEST SWAP7 POP SWAP7 POP POP PUSH1 0x40 DUP10 ADD CALLDATALOAD PUSH8 0xFFFFFFFFFFFFFFFF DUP2 GT ISZERO PUSH2 0xA32 JUMPI PUSH2 0xA31 PUSH2 0x78D JUMP JUMPDEST JUMPDEST PUSH2 0xA3E DUP12 DUP3 DUP13 ADD PUSH2 0x940 JUMP JUMPDEST SWAP5 POP SWAP5 POP POP PUSH1 0x60 DUP10 ADD CALLDATALOAD PUSH8 0xFFFFFFFFFFFFFFFF DUP2 GT ISZERO PUSH2 0xA61 JUMPI PUSH2 0xA60 PUSH2 0x78D JUMP JUMPDEST JUMPDEST PUSH2 0xA6D DUP12 DUP3 DUP13 ADD PUSH2 0x940 JUMP JUMPDEST SWAP3 POP SWAP3 POP POP SWAP3 SWAP6 SWAP9 POP SWAP3 SWAP6 SWAP9 SWAP1 SWAP4 SWAP7 POP JUMP JUMPDEST PUSH1 0x0 DUP1 REVERT JUMPDEST PUSH32 0x4E487B7100000000000000000000000000000000000000000000000000000000 PUSH1 0x0 MSTORE PUSH1 0x41 PUSH1 0x4 MSTORE PUSH1 0x24 PUSH1 0x0 REVERT JUMPDEST PUSH2 0xABC DUP3 PUSH2 0x86C JUMP JUMPDEST DUP2 ADD DUP2 DUP2 LT PUSH8 0xFFFFFFFFFFFFFFFF DUP3 GT OR ISZERO PUSH2 0xADB JUMPI PUSH2 0xADA PUSH2 0xA84 JUMP JUMPDEST JUMPDEST DUP1 PUSH1 0x40 MSTORE POP POP POP JUMP JUMPDEST PUSH1 0x0 PUSH2 0xAEE PUSH2 0x77E JUMP JUMPDEST SWAP1 POP PUSH2 0xAFA DUP3 DUP3 PUSH2 0xAB3 JUMP JUMPDEST SWAP2 SWAP1 POP JUMP JUMPDEST PUSH1 0x0 PUSH8 0xFFFFFFFFFFFFFFFF DUP3 GT ISZERO PUSH2 0xB1A JUMPI PUSH2 0xB19 PUSH2 0xA84 JUMP JUMPDEST JUMPDEST PUSH2 0xB23 DUP3 PUSH2 0x86C JUMP JUMPDEST SWAP1 POP PUSH1 0x20 DUP2 ADD SWAP1 POP SWAP2 SWAP1 POP JUMP JUMPDEST DUP3 DUP2 DUP4 CALLDATACOPY PUSH1 0x0 DUP4 DUP4 ADD MSTORE POP POP POP JUMP JUMPDEST PUSH1 0x0 PUSH2 0xB52 PUSH2 0xB4D DUP5 PUSH2 0xAFF JUMP JUMPDEST PUSH2 0xAE4 JUMP JUMPDEST SWAP1 POP DUP3 DUP2 MSTORE PUSH1 0x20 DUP2 ADD DUP5 DUP5 DUP5 ADD GT ISZERO PUSH2 0xB6E JUMPI PUSH2 0xB6D PUSH2 0xA7F JUMP JUMPDEST JUMPDEST PUSH2 0xB79 DUP5 DUP3 DUP6 PUSH2 0xB30 JUMP JUMPDEST POP SWAP4 SWAP3 POP POP POP JUMP JUMPDEST PUSH1 0x0 DUP3 PUSH1 0x1F DUP4 ADD SLT PUSH2 0xB96 JUMPI PUSH2 0xB95 PUSH2 0x931 JUMP JUMPDEST JUMPDEST DUP2 CALLDATALOAD PUSH2 0xBA6 DUP5 DUP3 PUSH1 0x20 DUP7 ADD PUSH2 0xB3F JUMP JUMPDEST SWAP2 POP POP SWAP3 SWAP2 POP POP JUMP JUMPDEST PUSH1 0x0 PUSH1 0x20 DUP3 DUP5 SUB SLT ISZERO PUSH2 0xBC5 JUMPI PUSH2 0xBC4 PUSH2 0x788 JUMP JUMPDEST JUMPDEST PUSH1 0x0 DUP3 ADD CALLDATALOAD PUSH8 0xFFFFFFFFFFFFFFFF DUP2 GT ISZERO PUSH2 0xBE3 JUMPI PUSH2 0xBE2 PUSH2 0x78D JUMP JUMPDEST JUMPDEST PUSH2 0xBEF DUP5 DUP3 DUP6 ADD PUSH2 0xB81 JUMP JUMPDEST SWAP2 POP POP SWAP3 SWAP2 POP POP JUMP JUMPDEST PUSH1 0x0 PUSH1 0x60 DUP3 ADD SWAP1 POP DUP2 DUP2 SUB PUSH1 0x0 DUP4 ADD MSTORE PUSH2 0xC12 DUP2 DUP7 PUSH2 0x87D JUMP JUMPDEST SWAP1 POP DUP2 DUP2 SUB PUSH1 0x20 DUP4 ADD MSTORE PUSH2 0xC26 DUP2 DUP6 PUSH2 0x87D JUMP JUMPDEST SWAP1 POP DUP2 DUP2 SUB PUSH1 0x40 DUP4 ADD MSTORE PUSH2 0xC3A DUP2 DUP5 PUSH2 0x87D JUMP JUMPDEST SWAP1 POP SWAP5 SWAP4 POP POP POP POP JUMP JUMPDEST PUSH1 0x0 DUP1 PUSH1 0x20 DUP4 DUP6 SUB SLT ISZERO PUSH2 0xC5B JUMPI PUSH2 0xC5A PUSH2 0x788 JUMP JUMPDEST JUMPDEST PUSH1 0x0 DUP4 ADD CALLDATALOAD PUSH8 0xFFFFFFFFFFFFFFFF DUP2 GT ISZERO PUSH2 0xC79 JUMPI PUSH2 0xC78 PUSH2 0x78D JUMP JUMPDEST JUMPDEST PUSH2 0xC85 DUP6 DUP3 DUP7 ADD PUSH2 0x940 JUMP JUMPDEST SWAP3 POP SWAP3 POP POP SWAP3 POP SWAP3 SWAP1 POP JUMP JUMPDEST PUSH32 0x4E487B7100000000000000000000000000000000000000000000000000000000 PUSH1 0x0 MSTORE PUSH1 0x22 PUSH1 0x4 MSTORE PUSH1 0x24 PUSH1 0x0 REVERT JUMPDEST PUSH1 0x0 PUSH1 0x2 DUP3 DIV SWAP1 POP PUSH1 0x1 DUP3 AND DUP1 PUSH2 0xCD8 JUMPI PUSH1 0x7F DUP3 AND SWAP2 POP JUMPDEST PUSH1 0x20 DUP3 LT DUP2 EQ ISZERO PUSH2 0xCEC JUMPI PUSH2 0xCEB PUSH2 0xC91 JUMP JUMPDEST JUMPDEST POP SWAP2 SWAP1 POP JUMP JUMPDEST PUSH1 0x0 DUP2 SWAP1 POP SWAP3 SWAP2 POP POP JUMP JUMPDEST PUSH1 0x0 PUSH2 0xD09 DUP4 DUP6 PUSH2 0xCF2 JUMP JUMPDEST SWAP4 POP PUSH2 0xD16 DUP4 DUP6 DUP5 PUSH2 0xB30 JUMP JUMPDEST DUP3 DUP5 ADD SWAP1 POP SWAP4 SWAP3 POP POP POP JUMP JUMPDEST PUSH1 0x0 PUSH2 0xD2F DUP3 DUP5 DUP7 PUSH2 0xCFD JUMP JUMPDEST SWAP2 POP DUP2 SWAP1 POP SWAP4 SWAP3 POP POP POP JUMP INVALID LOG2 PUSH5 0x6970667358 0x22 SLT KECCAK256 0x4E SLT 0xDB PUSH15 0xCD1B203EEEE0DE3379CCAC55D6E23C 0xC7 0xAF 0xB7 0xD SWAP15 0xCF 0xB2 0x2A OR 0xFC SWAP15 0xDC LOG1 PUSH5 0x736F6C6343 STOP ADDMOD MULMOD STOP CALLER "},"gasEstimates":{"creation":{"codeDepositCost":"688200","executionCost":"721","totalCost":"688921"},"external":{"addressToPublicKey(address)":"infinite","checkPasswordStatus()":"2546","messageHashToEncryptedData(string)":"infinite","storeEncryptedData(string,string,string,string)":"infinite","storePublicKey(string)":"infinite","updatePasswordStatus(bool)":"24790"}},"methodIdentifiers":{"addressToPublicKey(address)":"69f465b6","checkPasswordStatus()":"3d976093","messageHashToEncryptedData(string)":"b77299a8","storeEncryptedData(string,string,string,string)":"99138ee2","storePublicKey(string)":"e7d1b366","updatePasswordStatus(bool)":"75627289"}},"storageLayout":{"storage":[{"astId":14,"contract":"HandwrittenFonts.sol:HandwrittenFonts","label":"messageHashToEncryptedData","offset":0,"slot":"0","type":"t_mapping(t_string_memory_ptr,t_struct(MessageRelatedData)9_storage)"},{"astId":18,"contract":"HandwrittenFonts.sol:HandwrittenFonts","label":"passwordCreated","offset":0,"slot":"1","type":"t_mapping(t_address,t_bool)"},{"astId":22,"contract":"HandwrittenFonts.sol:HandwrittenFonts","label":"addressToPublicKey","offset":0,"slot":"2","type":"t_mapping(t_address,t_string_storage)"}],"types":{"t_address":{"encoding":"inplace","label":"address","numberOfBytes":"20"},"t_bool":{"encoding":"inplace","label":"bool","numberOfBytes":"1"},"t_mapping(t_address,t_bool)":{"encoding":"mapping","key":"t_address","label":"mapping(address => bool)","numberOfBytes":"32","value":"t_bool"},"t_mapping(t_address,t_string_storage)":{"encoding":"mapping","key":"t_address","label":"mapping(address => string)","numberOfBytes":"32","value":"t_string_storage"},"t_mapping(t_string_memory_ptr,t_struct(MessageRelatedData)9_storage)":{"encoding":"mapping","key":"t_string_memory_ptr","label":"mapping(string => struct HandwrittenFonts.MessageRelatedData)","numberOfBytes":"32","value":"t_struct(MessageRelatedData)9_storage"},"t_string_memory_ptr":{"encoding":"bytes","label":"string","numberOfBytes":"32"},"t_string_storage":{"encoding":"bytes","label":"string","numberOfBytes":"32"},"t_struct(MessageRelatedData)9_storage":{"encoding":"inplace","label":"struct HandwrittenFonts.MessageRelatedData","members":[{"astId":4,"contract":"HandwrittenFonts.sol:HandwrittenFonts","label":"encryptedSymmetricKey","offset":0,"slot":"0","type":"t_string_storage"},{"astId":6,"contract":"HandwrittenFonts.sol:HandwrittenFonts","label":"encryptedCidOfEncryptedFontFile","offset":0,"slot":"1","type":"t_string_storage"},{"astId":8,"contract":"HandwrittenFonts.sol:HandwrittenFonts","label":"encryptedFilenameOfEncryptedFontFile","offset":0,"slot":"2","type":"t_string_storage"}],"numberOfBytes":"96"}}},"userdoc":{"kind":"user","methods":{},"version":1}}